:1000000021C045C044C043C042C084C240C03FC0BC
:100010003EC03DC03CC03BC052C239C038C00103E5
:100020000000040001020408102002020202020281
:100030000000000036000000000038000000000052
:1000400037007E0211241FBECFE5D2E0DEBFCDBF58
:1000500010E0A0E6B0E0E0E3FBE002C005900D9206
:10006000A837B107D9F720E0A8E7B0E001C01D929A
:10007000A23BB207E1F710E0C2E2D0E003C0219753
:10008000FE010AD4C132D107D1F740D24FC5B8CF53
:100090006FE670E0809178009091790028D521E09A
:1000A000892B09F020E0822F0895CF93F1DF809310
:1000B0009000E0917800F09179001082F89484B774
:1000C000877F84BF88E181BD88E681BD789460E048
:1000D00082E0FCD260E084E0F9D260E080E0F6D219
:1000E00084E0DAD281E8DBD261E081E0EFD21EBCAD
:1000F00087EC8DBD85E780BF61E083E0E7D284EFC8
:1001000091E09093A3008093A20010929200A89592
:1001100004B601FE24C080919000811120C064EFDC
:1001200071E080E090E073D281E8B9D28093A000C2
:100130009093A100682F90E080E0EAD464E670E03C
:1001400080E090E064D261E083E00FD36CEB72E07A
:1001500080E090E05CD260E083E007D3A89564E69D
:1001600070E080E090E053D290E080E0C9D4803429
:1001700008F04FC08093920064EF71E080E090E05F
:1001800046D210929D0010929C001092A1001092F5
:10019000A00010929F0010929E0010929400109266
:1001A00095001092960010929700C1E0C0938F00C6
:1001B00082E190E0A0E0B0E080937B0090937C002F
:1001C000A0937D00B0937E00C0937A00EDD1609340
:1001D0008B0070938C0080938D0090938E006093C1
:1001E0007F007093800080938100909382006093E1
:1001F0008300709384008093850090938600C09361
:1002000091008CE38EBD6CE271E080E090E0CF91D4
:10021000FEC110929200B0CFCF92DF92EF92FF9288
:100220000F931F93CF93DF93BFD160938700709399
:1002300088008093890090938A0000918B00109130
:100240008C0020918D0030918E006B017C01C01AD2
:10025000D10AE20AF30A97018601C090A200D09069
:10026000A3000D2C000CEE08FF080C151D052E0533
:100270003F0584F060938B0070938C0080938D0019
:1002800090938E0083E0C0D260E0811101C061E0F4
:1002900083E06BD28091A0009091A10090939F0089
:1002A00080939E0081E8FBD19093A1008093A000F1
:1002B00082E8F5D190939D0080939C00109293006A
:1002C000809193008330D0F481E8E9D1EC0182E899
:1002D000E6D12091A0003091A1002C173D0724F415
:1002E000D093A100C093A00090939D0080939C00A8
:1002F000809193008F5F80939300E2CF80919C0068
:1003000090919D00880F991F880F991F90939D00D1
:1003100080939C0049D160938700709388008093FC
:10032000890090938A00C0908300D0908400E09070
:100330008500F09086006C197D098E099F09C09098
:100340007B00D0907C00E0907D00F0907E006C15EA
:100350007D058E059F050CF44FC0A8958091870000
:1003600090918800A0918900B0918A0080938300C9
:1003700090938400A0938500B0938600C090940071
:10038000D0909500E0909600F0909700C092980071
:10039000D0929900E0929A00F0929B00C091A00048
:1003A000D091A10060919C0070919D00072E000CDF
:1003B000880B990B9E010D2E000C440B550B53D24C
:1003C00060939400709395008093960090939700AB
:1003D000209192002C171D060CF046C021E02093BE
:1003E0007A00C616D706E806F90679F484EF91E09C
:1003F0009093A3008093A200DF91CF911F910F9162
:10040000FF90EF90DF90CF900895C616D706E806CC
:10041000F90694F480E991E09093A3008093A20000
:1004200080919100882309F43EC08EB5883CB0F5D8
:100430008EB58F5F8EBDE0CF8CE291E09093A300EC
:100440008093A20080919E0090919F00C817D907C9
:100450001CF420939100E4CF81E0909191009111E0
:1004600080E080939100DCCF8CE291E09093A30038
:100470008093A2008CE38EBD81E080939100109266
:10048000940010929500109296001092970010928E
:10049000A1001092A00080937A00AECF88EC8EBDB0
:1004A00010929100A9CF8EB58B3018F08EB5815087
:1004B000C1CF8AE08EBD81E0809391009DCF1F92D5
:1004C0000F920FB60F9211248F93AF93BF93EF93B8
:1004D000FF93A0917800B091790089E0E6E6F0E022
:1004E00001900D928A95E1F7FF91EF91BF91AF9145
:1004F0008F910F900FBE0F901F90189589E090E09C
:10050000D1D190937900809378000895AAD0CDDD61
:1005100083DEFECF1F920F920FB60F9211242F93FE
:100520003F938F939F93AF93BF938091A50090913A
:10053000A600A091A700B091A8003091A40026E0E9
:10054000230F2D3768F129E8230F0396A11DB11D54
:100550002093A4008093A5009093A600A093A700E9
:10056000B093A8008091A9009091AA00A091AB003F
:10057000B091AC000196A11DB11D8093A90090938C
:10058000AA00A093AB00B093AC00BF91AF919F9134
:100590008F913F912F910F900FBE0F901F90189544
:1005A0000296A11DB11DD4CF2FB7F8946091A5007C
:1005B0007091A6008091A7009091A8002FBF089588
:1005C0003FB7F8948091A9009091AA00A091AB0048
:1005D000B091AC0022B708B601FE05C02F3F19F05C
:1005E0000196A11DB11D3FBFBA2FA92F982F8827B3
:1005F000BC01CD01620F711D811D911D43E0660F8D
:10060000771F881F991F4A95D1F708950895CF92B3
:10061000DF92EF92FF92CF93DF936B017C01D0DFEB
:10062000EB01C114D104E104F10461F0EFDFC8DF94
:100630006C1B7D0B683E7340A0F3C114D104E10430
:10064000F10439F4DF91CF91FF90EF90DF90CF90DC
:10065000089581E0C81AD108E108F108C851DC4FBB
:10066000E6CF83E08ABD82E083BF789489B7826059
:1006700089BF87B5811107C082E887BD07B400FE36
:10068000FDCF86E887BD80E48CBD8FEF8DBD84EC07
:1006900080BF83E886B908958093AD000895909156
:1006A000AD009295990F990F907C8F70982B97B908
:1006B00097B18091AD00880F880F8071892B87B921
:1006C000369A3699FECF84B195B10895CF93DF93D2
:1006D00087FF09C08F7771F1813071F1823071F13C
:1006E000833071F18FEF90E0FC01EC5DFF4F2491BE
:1006F000865D9F4FFC0184918823C9F090E0880FAC
:10070000991FFC01E45CFF4FA591B491FC01EA5CE8
:10071000FF4FC591D491611115C09FB7F8948C918A
:10072000209582238C938881282328839FBFDF9183
:10073000CF91089585E0D7CF82E0D5CF84E0D3CFA5
:1007400083E0D1CF623051F49FB7F8943C91822F6F
:10075000809583238C93E8812E2BE7CF8FB7F89475
:10076000EC912E2B2C938FBFE2CF87FF09C08F77A0
:1007700071F1813071F1823071F1833071F18FEF5D
:1007800090E0FC01E25EFF4F3491FC01EC5DFF4F15
:100790002491FC01E65DFF4FE491EE23B9F0332391
:1007A00029F03130E1F48AB58F778ABDF0E0EE0FA1
:1007B000FF1FEA5CFF4FA591B4918FB7611120C074
:1007C000F894EC9120952E232C938FBF089585E00B
:1007D000D7CF82E0D5CF84E0D3CF83E0D1CF323002
:1007E00019F48AB58F7DE1CF333021F480B78F7D46
:1007F00080BFDCCF3430D1F68CB58F7D8CBDD6CFA9
:10080000F894EC912E2BE0CF87FF09C08F7701F190
:10081000813001F1823001F1833001F18FEF90E0FE
:10082000FC01EC5DFF4F2491FC01E65DFF4FE4917C
:10083000EE23B1F0F0E0EE0FFF1FE05DFF4FA5915A
:10084000B491EC91E22381E090E061F480E00895BE
:1008500085E0E5CF82E0E3CF84E0E1CF83E0DFCF46
:1008600080E090E00895EE27FF27AA27BB2708C065
:10087000A20FB31FE41FF51F220F331F441F551F84
:10088000969587957795679598F37040A9F70097A7
:1008900099F7BD01CF010895EE0FFF1F0590F49168
:1008A000E02D09940F931F93CF93DF93823091052E
:1008B00010F482E090E0E091B000F091B10030E0FF
:1008C00020E0B0E0A0E0309799F42115310509F45B
:1008D0004AC0281B390B24303105D8F58A819B8109
:1008E0006115710589F1FB0193838283FE0111C0BB
:1008F000408151810281138148175907E0F0481760
:10090000590799F4109761F012960C931297139669
:100910001C933296CF01DF91CF911F910F910895D3
:100920000093B0001093B100F4CF2115310551F0C0
:100930004217530738F0A901DB019A01BD01DF011D
:10094000F801C1CFEF01F9CF9093B1008093B000CF
:10095000CDCFFE01E20FF31F819391932250310915
:1009600039832883D7CF2091AE003091AF00232B5D
:1009700041F420916200309163003093AF002093E6
:10098000AE0020916000309161002115310541F4E5
:100990002DB73EB74091640050916500241B350B84
:1009A000E091AE00F091AF00E217F307A0F42E1B28
:1009B0003F0B2817390778F0AC014E5F5F4F2417C3
:1009C000350748F04E0F5F1F5093AF004093AE00C5
:1009D000819391939FCFF0E0E0E09CCFCF93DF93A2
:1009E0000097E9F0FC01329713821282A091B000C7
:1009F000B091B100ED0130E020E01097A1F420812A
:100A00003181820F931F2091AE003091AF002817E3
:100A1000390709F061C0F093AF00E093AE00DF91B9
:100A2000CF910895EA01CE17DF07E8F54A815B818F
:100A30009E0141155105B1F7E901FB83EA83499114
:100A40005991C40FD51FEC17FD0761F48081918186
:100A50000296840F951FE90199838883828193818F
:100A60009B838A83F0E0E0E012968D919C9113972E
:100A70000097B9F52D913C911197CD010296820F07
:100A8000931F2091AE003091AF002817390739F637
:100A9000309751F51092B1001092B000B093AF00B2
:100AA000A093AE00BCCFD383C28340815181840F19
:100AB000951FC817D90761F44E5F5F4F88819981F0
:100AC000480F591F518340838A819B81938382837E
:100AD0002115310509F0B0CFF093B100E093B000DB
:100AE0009ECFFD01DC01C0CF13821282D7CFFB0164
:100AF000DC018D91019080190110D9F3990B0895B3
:100B0000E199FECF9FBB8EBBE09A99278DB30895E4
:100B1000262FE199FECF1CBA9FBB8EBB2DBB0FB613
:100B2000F894E29AE19A0FBE01960895F894FFCFE7
:100B30000000B2008000776474726573657400779A
:080B40006474726573657400B2
:00000001FF
