:1000000021C045C044C043C042C06FC240C03FC0D1
:100010003EC03DC03CC03BC03DC239C038C00103FA
:100020000000040001020408102002020202020281
:100030000000000036000000000038000000000052
:100040003700690211241FBECFE5D2E0DEBFCDBF6D
:1000500010E0A0E6B0E0ECE1FBE002C005900D92FC
:10006000A837B107D9F720E0A8E7B0E001C01D929A
:10007000A23BB207E1F710E0C2E2D0E003C0219753
:10008000FE0100D4C132D107D1F72BD245C5B8CF7C
:100090006FE670E080917800909179001ED521E0A4
:1000A000892B09F020E0822F0895CF93F1DF809310
:1000B0009100E0917800F09179001082F89484B773
:1000C000877F84BF88E181BD88E681BD789460E048
:1000D00082E0F2D260E084E0EFD260E080E0ECD237
:1000E00084E0D0D281E8D1D261E081E0E5D21EBCCB
:1000F00087EC8DBD85E780BF61E083E0DDD284EFD2
:1001000091E09093A3008093A20010929300A89591
:1001100004B601FE24C080919100811120C064EFDB
:1001200071E080E090E05ED281E8AFD28093A000E1
:100130009093A100682F90E080E0E0D464E670E046
:1001400080E090E04FD261E083E005D36CEB72E099
:1001500080E090E047D260E083E0FDD2A89564E6BD
:1001600070E080E090E03ED290E080E0BFD4803448
:1001700008F051C08093930064EF71E080E090E05C
:1001800031D210929D0010929C001092A10010920A
:10019000A00010929F0010929E0010929400109266
:1001A00095001092960010929700C1E0C0939000C5
:1001B00088E290E0A0E0B0E080937C0090937D0026
:1001C000A0937E00B0937F00C0937B0010927A00D2
:1001D000D6D160938C0070938D0080938E009093A5
:1001E0008F006093800070938100809382009093D1
:1001F00083006093840070938500809386009093C1
:100200008700C09392008CE38EBD6CE271E080E0C9
:1002100090E0CF91E7C110929300AECFCF92DF92E2
:10022000EF92FF920F931F93CF93DF93A8D1609328
:1002300088007093890080938A0090938B000091CE
:100240008C0010918D0020918E0030918F006B01F9
:100250007C01C01AD10AE20AF30A97018601C09014
:10026000A200D090A3000D2C000CEE08FF080C1586
:100270001D052E053F0584F060938C0070938D0062
:1002800080938E0090938F0083E0B4D260E0811160
:1002900001C061E083E05FD28091A0009091A10055
:1002A00090939F0080939E0008B602FEFDCF80E5EC
:1002B00090E0C2D181E8E9D19093A1008093A000A1
:1002C00082E8E3D1880F991F880F991F90939D00B2
:1002D00080939C0054D16093880070938900809330
:1002E0008A0090938B00C0908400D0908500E090AD
:1002F0008600F09087006C197D098E099F09C090D7
:100300007C00D0907D00E0907E00F0907F006C1526
:100310007D058E059F050CF451C0A895809188003D
:1003200090918900A0918A00B0918B008093840005
:1003300090938500A0938600B0938700C0909400AE
:10034000D0909500E0909600F0909700C0929800B1
:10035000D0929900E0929A00F0929B00C091A00088
:10036000D091A10060919C0070919D00072E000C1F
:10037000880B990B9E010D2E000C440B550B69D276
:1003800060939400709395008093960090939700EB
:10039000209193002C171D060CF051C021E02093F2
:1003A0007B00C616D706E806F90689F484EF91E0CB
:1003B0009093A3008093A20010927A00DF91CF91D6
:1003C0001F910F91FF90EF90DF90CF900895C61688
:1003D000D706E806F906A4F48CE291E09093A30016
:1003E0008093A20010927A0080919200882309F4F1
:1003F00045C08EB5883CE8F58EB58F5F8EBDDECFEB
:1004000086E990E09093A3008093A20080917A0007
:100410008F5F80937A008C3050F080919E00909195
:100420009F00C817D9071CF420939200DDCF81E00C
:1004300090919200911180E080939200D5CF86E94F
:1004400090E09093A3008093A2008CE38EBD81E0A6
:100450008093920010929400109295001092960052
:10046000109297001092A1001092A00080937B0040
:10047000A3CF88EC8EBD10929200A0CF8EB58531AF
:1004800018F08EB58150BACF84E18EBD81E08093A3
:10049000920094CF1F920F920FB60F9211248F9358
:1004A000AF93BF93EF93FF93A0917800B091790041
:1004B00089E0E6E6F0E001900D928A95E1F7FF9180
:1004C000EF91BF91AF918F910F900FBE0F901F9042
:1004D000189589E090E0DCD19093790080937800C2
:1004E0000895B5D0E2DD9ADEFECF1F920F920FB6CF
:1004F0000F9211242F933F938F939F93AF93BF93AA
:100500008091A5009091A600A091A700B091A800AD
:100510003091A40026E0230F2D3768F129E8230F3E
:100520000396A11DB11D2093A4008093A500909374
:10053000A600A093A700B093A8008091A900909175
:10054000AA00A091AB00B091AC000196A11DB11D15
:100550008093A9009093AA00A093AB00B093AC0045
:10056000BF91AF919F918F913F912F910F900FBEAF
:100570000F901F9018950296A11DB11DD4CF2FB7D3
:10058000F8946091A5007091A6008091A7009091C9
:10059000A8002FBF08953FB7F8948091A9009091CB
:1005A000AA00A091AB00B091AC0022B708B601FE42
:1005B00005C02F3F19F00196A11DB11D3FBFBA2FF5
:1005C000A92F982F8827BC01CD01620F711D811DB5
:1005D000911D43E0660F771F881F991F4A95D1F739
:1005E00008950895CF92DF92EF92FF92CF93DF9319
:1005F0006B017C01D0DFEB01C114D104E104F104F3
:1006000061F0EFDFC8DF6C1B7D0B683E7340A0F329
:10061000C114D104E104F10439F4DF91CF91FF90CA
:10062000EF90DF90CF90089581E0C81AD108E108DB
:10063000F108C851DC4FE6CF8A31910538F0469772
:1006400096958795969587950197F1F7089583E09C
:100650008ABD82E083BF789489B7826089BF87B5FD
:10066000811107C082E887BD07B400FEFDCF86E890
:1006700087BD80E48CBD8FEF8DBD84EC80BF83E8A7
:1006800086B908958093AD0008959091AD0092953C
:10069000990F990F907C8F70982B97B997B1809193
:1006A000AD00880F880F8071892B87B9369A3699EB
:1006B000FECF84B195B10895CF93DF9387FF09C032
:1006C0008F7771F1813071F1823071F1833071F186
:1006D0008FEF90E0FC01EC5DFF4F2491865D9F4F12
:1006E000FC0184918823C9F090E0880F991FFC01D8
:1006F000E45CFF4FA591B491FC01EA5CFF4FC5910A
:10070000D491611115C09FB7F8948C9120958223E4
:100710008C938881282328839FBFDF91CF910895F0
:1007200085E0D7CF82E0D5CF84E0D3CF83E0D1CFAF
:10073000623051F49FB7F8943C91822F80958323C7
:100740008C93E8812E2BE7CF8FB7F894EC912E2B6A
:100750002C938FBFE2CF87FF09C08F7771F1813073
:1007600071F1823071F1833071F18FEF90E0FC0113
:10077000E25EFF4F3491FC01EC5DFF4F2491FC01E0
:10078000E65DFF4FE491EE23B9F0332329F03130D9
:10079000E1F48AB58F778ABDF0E0EE0FFF1FEA5CC7
:1007A000FF4FA591B4918FB7611120C0F894EC91DF
:1007B00020952E232C938FBF089585E0D7CF82E01C
:1007C000D5CF84E0D3CF83E0D1CF323019F48AB5CE
:1007D0008F7DE1CF333021F480B78F7D80BFDCCFB8
:1007E0003430D1F68CB58F7D8CBDD6CFF894EC919A
:1007F0002E2BE0CF87FF09C08F7701F1813001F107
:10080000823001F1833001F18FEF90E0FC01EC5D6B
:10081000FF4F2491FC01E65DFF4FE491EE23B1F020
:10082000F0E0EE0FFF1FE05DFF4FA591B491EC915A
:10083000E22381E090E061F480E0089585E0E5CF77
:1008400082E0E3CF84E0E1CF83E0DFCF80E090E09F
:100850000895EE27FF27AA27BB2708C0A20FB31FC2
:10086000E41FF51F220F331F441F551F96958795D0
:100870007795679598F37040A9F7009799F7BD01B0
:10088000CF010895EE0FFF1F0590F491E02D09941C
:100890000F931F93CF93DF938230910510F482E082
:1008A00090E0E091B000F091B10030E020E0B0E0E5
:1008B000A0E0309799F42115310509F44AC0281BAE
:1008C000390B24303105D8F58A819B81611571057A
:1008D00089F1FB0193838283FE0111C04081518124
:1008E0000281138148175907E0F04817590799F416
:1008F000109761F012960C93129713961C933296F0
:10090000CF01DF91CF911F910F9108950093B00017
:100910001093B100F4CF2115310551F04217530760
:1009200038F0A901DB019A01BD01DF01F801C1CF57
:10093000EF01F9CF9093B1008093B000CDCFFE01CD
:10094000E20FF31F81939193225031093983288359
:10095000D7CF2091AE003091AF00232B41F42091EE
:100960006200309163003093AF002093AE0020917D
:100970006000309161002115310541F42DB73EB77B
:100980004091640050916500241B350BE091AE004E
:10099000F091AF00E217F307A0F42E1B3F0B2817CE
:1009A000390778F0AC014E5F5F4F2417350748F0E8
:1009B0004E0F5F1F5093AF004093AE008193919311
:1009C0009FCFF0E0E0E09CCFCF93DF930097E9F07A
:1009D000FC01329713821282A091B000B091B10055
:1009E000ED0130E020E01097A1F420813181820FE9
:1009F000931F2091AE003091AF002817390709F0FE
:100A000061C0F093AF00E093AE00DF91CF91089505
:100A1000EA01CE17DF07E8F54A815B819E014115A7
:100A20005105B1F7E901FB83EA8349915991C40F5C
:100A3000D51FEC17FD0761F4808191810296840F28
:100A4000951FE90199838883828193819B838A839F
:100A5000F0E0E0E012968D919C9113970097B9F524
:100A60002D913C911197CD010296820F931F2091F9
:100A7000AE003091AF002817390739F6309751F59D
:100A80001092B1001092B000B093AF00A093AE00EE
:100A9000BCCFD383C28340815181840F951FC81777
:100AA000D90761F44E5F5F4F88819981480F591FC4
:100AB000518340838A819B819383828321153105F1
:100AC00009F0B0CFF093B100E093B0009ECFFD01EC
:100AD000DC01C0CF13821282D7CFFB01DC018D91E4
:100AE000019080190110D9F3990B0895E199FECF77
:100AF0009FBB8EBBE09A99278DB30895262FE1996D
:100B0000FECF1CBA9FBB8EBB2DBB0FB6F894E29AEA
:0C0B1000E19A0FBE01960895F894FFCF03
:100B1C000000B200800077647472657365740077AE
:080B2C006474726573657400C6
:00000001FF
