:1000000021C045C044C043C042C09AC240C03FC0A6
:100010003EC03DC03CC03BC068C239C038C00103CF
:100020000000040001020408102002020202020281
:100030000000000036000000000038000000000052
:100040003700940211241FBECFE5D2E0DEBFCDBF42
:1000500010E0A0E6B0E0ECE5FBE002C005900D92F8
:10006000A837B107D9F720E0A8E7B0E001C01D929A
:10007000A33BB207E1F710E0C2E2D0E003C0219752
:10008000FE0120D4C132D107D1F756D265C5B8CF11
:100090006FE670E080917800909179003ED521E084
:1000A000892B09F020E0822F0895CF93F1DF809310
:1000B0009100E0917800F09179001082F89484B773
:1000C000877F84BF88E181BD88E681BD789460E048
:1000D00082E012D360E084E00FD360E080E00CD3D4
:1000E00084E0F0D281E8F1D261E081E005D31EBC6A
:1000F00087EC8DBD85E780BF61E083E0FDD284EFB2
:1001000091E09093A4008093A30010929300A8958F
:1001100004B601FE24C080919100811120C064EFDB
:1001200071E080E090E089D281E8CFD28093A10095
:100130009093A200682F90E080E000D564E670E024
:1001400080E090E07AD261E083E025D36CEB72E04E
:1001500080E090E072D260E083E01DD3A89564E671
:1001600070E080E090E069D290E080E0DFD48034FD
:1001700008F051C08093930064EF71E080E090E05C
:100180005CD210929E0010929D001092A2001092DC
:10019000A1001092A00010929F0010929500109262
:1001A00096001092970010929800C1E0C0939000C2
:1001B00088E290E0A0E0B0E080937C0090937D0026
:1001C000A0937E00B0937F00C0937B0010927A00D2
:1001D00001D260938C0070938D0080938E00909379
:1001E0008F006093800070938100809382009093D1
:1001F00083006093840070938500809386009093C1
:100200008700C09392008CE38EBD6CE271E080E0C9
:1002100090E0CF9112C210929300AECFCF92DF92B6
:10022000EF92FF920F931F93CF93DF93D3D16093FD
:1002300088007093890080938A0090938B000091CE
:100240008C0010918D0020918E0030918F006B01F9
:100250007C01C01AD10AE20AF30A97018601C09014
:10026000A300D090A4000D2C000CEE08FF080C1584
:100270001D052E053F0584F060938C0070938D0062
:1002800080938E0090938F0083E0D4D260E0811140
:1002900001C061E083E07FD28091A1009091A20033
:1002A0009093A00080939F0081E80FD29093A200CA
:1002B0008093A10082E809D290939E0080939D00D4
:1002C0001092940080919400833018F581E8FDD15C
:1002D000EC0182E8FAD12091A1003091A200C20F76
:1002E000D31FD595C795D093A200C093A1002091AC
:1002F0009D0030919E00820F931F95958795909356
:100300009E0080939D00809194008F5F8093940065
:10031000D9CF80919D0090919E00880F991F880FE2
:10032000991F90939E0080939D0054D16093880004
:100330007093890080938A0090938B00C090840012
:10034000D0908500E0908600F09087006C197D09C0
:100350008E099F09C0907C00D0907D00E0907E00C7
:10036000F0907F006C157D058E059F050CF451C043
:10037000A8958091880090918900A0918A00B09101
:100380008B008093840090938500A0938600B093A7
:100390008700C0909500D0909600E0909700F09074
:1003A0009800C0929900D0929A00E0929B00F0923F
:1003B0009C00C091A100D091A20060919D0070911D
:1003C0009E00072E000C880B990B9E010D2E000C31
:1003D000440B550B5ED2609395007093960080930A
:1003E000970090939800209193002C171D060CF015
:1003F00051C021E020937B00C616D706E806F90617
:1004000089F484EF91E09093A4008093A30010926C
:100410007A00DF91CF911F910F91FF90EF90DF90C5
:10042000CF900895C616D706E806F906A4F48CE224
:1004300091E09093A4008093A30010927A008091A1
:100440009200882309F445C08EB5883CE8F58EB546
:100450008F5F8EBDDECF86E990E09093A4008093FD
:10046000A30080917A008F5F80937A008C3050F0E7
:1004700080919F009091A000C817D9071CF4209389
:100480009200DDCF81E090919200911180E0809305
:100490009200D5CF86E990E09093A4008093A300CA
:1004A0008CE38EBD81E080939200109295001092B3
:1004B000960010929700109298001092A20010924D
:1004C000A10080937B00A3CF88EC8EBD1092920098
:1004D000A0CF8EB58B3018F08EB58150BACF8AE0A0
:1004E0008EBD81E08093920094CF1F920F920FB641
:1004F0000F9211248F93AF93BF93EF93FF93A0912B
:100500007800B091790089E0E6E6F0E001900D9284
:100510008A95E1F7FF91EF91BF91AF918F910F9085
:100520000FBE0F901F90189589E090E0D1D1909365
:100530007900809378000895AAD0B7DD6FDEFECFF2
:100540001F920F920FB60F9211242F933F938F9308
:100550009F93AF93BF938091A6009091A700A09125
:10056000A800B091A9003091A50026E0230F2D37F7
:1005700068F129E8230F0396A11DB11D2093A50062
:100580008093A6009093A700A093A800B093A90021
:100590008091AA009091AB00A091AC00B091AD0009
:1005A0000196A11DB11D8093AA009093AB00A0936A
:1005B000AC00B093AD00BF91AF919F918F913F91EF
:1005C0002F910F900FBE0F901F9018950296A11DAE
:1005D000B11DD4CF2FB7F8946091A6007091A700F9
:1005E0008091A8009091A9002FBF08953FB7F8947B
:1005F0008091AA009091AB00A091AC00B091AD00A9
:1006000022B708B601FE05C02F3F19F00196A11DC3
:10061000B11D3FBFBA2FA92F982F8827BC01CD014C
:10062000620F711D811D911D43E0660F771F881FAA
:10063000991F4A95D1F708950895CF92DF92EF92CE
:10064000FF92CF93DF936B017C01D0DFEB01C114EC
:10065000D104E104F10461F0EFDFC8DF6C1B7D0B16
:10066000683E7340A0F3C114D104E104F10439F4ED
:10067000DF91CF91FF90EF90DF90CF90089581E0D0
:10068000C81AD108E108F108C851DC4FE6CF83E071
:100690008ABD82E083BF789489B7826089BF87B5BD
:1006A000811107C082E887BD07B400FEFDCF86E850
:1006B00087BD80E48CBD8FEF8DBD84EC80BF83E867
:1006C00086B908958093AE0008959091AE009295FA
:1006D000990F990F907C8F70982B97B997B1809153
:1006E000AE00880F880F8071892B87B9369A3699AA
:1006F000FECF84B195B10895CF93DF9387FF09C0F2
:100700008F7771F1813071F1823071F1833071F145
:100710008FEF90E0FC01EC5DFF4F2491865D9F4FD1
:10072000FC0184918823C9F090E0880F991FFC0197
:10073000E45CFF4FA591B491FC01EA5CFF4FC591C9
:10074000D491611115C09FB7F8948C9120958223A4
:100750008C938881282328839FBFDF91CF910895B0
:1007600085E0D7CF82E0D5CF84E0D3CF83E0D1CF6F
:10077000623051F49FB7F8943C91822F8095832387
:100780008C93E8812E2BE7CF8FB7F894EC912E2B2A
:100790002C938FBFE2CF87FF09C08F7771F1813033
:1007A00071F1823071F1833071F18FEF90E0FC01D3
:1007B000E25EFF4F3491FC01EC5DFF4F2491FC01A0
:1007C000E65DFF4FE491EE23B9F0332329F0313099
:1007D000E1F48AB58F778ABDF0E0EE0FFF1FEA5C87
:1007E000FF4FA591B4918FB7611120C0F894EC919F
:1007F00020952E232C938FBF089585E0D7CF82E0DC
:10080000D5CF84E0D3CF83E0D1CF323019F48AB58D
:100810008F7DE1CF333021F480B78F7D80BFDCCF77
:100820003430D1F68CB58F7D8CBDD6CFF894EC9159
:100830002E2BE0CF87FF09C08F7701F1813001F1C6
:10084000823001F1833001F18FEF90E0FC01EC5D2B
:10085000FF4F2491FC01E65DFF4FE491EE23B1F0E0
:10086000F0E0EE0FFF1FE05DFF4FA591B491EC911A
:10087000E22381E090E061F480E0089585E0E5CF37
:1008800082E0E3CF84E0E1CF83E0DFCF80E090E05F
:100890000895EE27FF27AA27BB2708C0A20FB31F82
:1008A000E41FF51F220F331F441F551F9695879590
:1008B0007795679598F37040A9F7009799F7BD0170
:1008C000CF010895EE0FFF1F0590F491E02D0994DC
:1008D0000F931F93CF93DF938230910510F482E042
:1008E00090E0E091B100F091B20030E020E0B0E0A3
:1008F000A0E0309799F42115310509F44AC0281B6E
:10090000390B24303105D8F58A819B816115710539
:1009100089F1FB0193838283FE0111C040815181E3
:100920000281138148175907E0F04817590799F4D5
:10093000109761F012960C93129713961C933296AF
:10094000CF01DF91CF911F910F9108950093B100D6
:100950001093B200F4CF2115310551F0421753071F
:1009600038F0A901DB019A01BD01DF01F801C1CF17
:10097000EF01F9CF9093B2008093B100CDCFFE018B
:10098000E20FF31F81939193225031093983288319
:10099000D7CF2091AF003091B000232B41F42091AC
:1009A0006200309163003093B0002093AF0020913B
:1009B0006000309161002115310541F42DB73EB73B
:1009C0004091640050916500241B350BE091AF000D
:1009D000F091B000E217F307A0F42E1B3F0B28178D
:1009E000390778F0AC014E5F5F4F2417350748F0A8
:1009F0004E0F5F1F5093B0004093AF0081939193CF
:100A00009FCFF0E0E0E09CCFCF93DF930097E9F039
:100A1000FC01329713821282A091B100B091B20012
:100A2000ED0130E020E01097A1F420813181820FA8
:100A3000931F2091AF003091B0002817390709F0BB
:100A400061C0F093B000E093AF00DF91CF910895C3
:100A5000EA01CE17DF07E8F54A815B819E01411567
:100A60005105B1F7E901FB83EA8349915991C40F1C
:100A7000D51FEC17FD0761F4808191810296840FE8
:100A8000951FE90199838883828193819B838A835F
:100A9000F0E0E0E012968D919C9113970097B9F5E4
:100AA0002D913C911197CD010296820F931F2091B9
:100AB000AF003091B0002817390739F6309751F55B
:100AC0001092B2001092B100B093B000A093AF00AA
:100AD000BCCFD383C28340815181840F951FC81737
:100AE000D90761F44E5F5F4F88819981480F591F84
:100AF000518340838A819B819383828321153105B1
:100B000009F0B0CFF093B200E093B1009ECFFD01A9
:100B1000DC01C0CF13821282D7CFFB01DC018D91A3
:100B2000019080190110D9F3990B0895E199FECF36
:100B30009FBB8EBBE09A99278DB30895262FE1992C
:100B4000FECF1CBA9FBB8EBB2DBB0FB6F894E29AAA
:0C0B5000E19A0FBE01960895F894FFCFC3
:100B5C000000B3008000776474726573657400776D
:080B6C00647472657365740086
:00000001FF
