:1000000021C045C044C043C042C0A5C240C03FC09B
:100010003EC03DC03CC03BC073C239C038C00103C4
:100020000000040001020408102002020202020281
:100030000000000036000000000038000000000052
:1000400037009F0211241FBECFE5D2E0DEBFCDBF37
:1000500010E0A0E6B0E0E2E7FBE002C005900D9200
:10006000A837B107D9F720E0A8E7B0E001C01D929A
:10007000AA3BB207E1F710E0C2E2D0E003C021974B
:10008000FE012BD4C132D107D1F761D270C5B8CFF0
:100090006FE670E0809178009091790049D521E079
:1000A000892B09F020E0822F0895CF93F1DF809310
:1000B0009000E0917800F09179001082F89484B774
:1000C000877F84BF88E181BD88E681BD789460E048
:1000D00082E01DD360E084E01AD360E080E017D3B3
:1000E00084E0FBD281E8FCD261E081E010D31EBC49
:1000F00087EC8DBD85E780BF61E083E008D384EFA6
:1001000091E09093AB008093AA0010929200A89582
:1001100004B601FE24C080919000811120C064EFDC
:1001200071E080E090E094D281E8DAD28093A80078
:100130009093A900682F90E080E00BD564E670E012
:1001400080E090E085D261E083E030D36CEB72E038
:1001500080E090E07DD260E083E028D3A89564E65B
:1001600070E080E090E074D290E080E0EAD48034E7
:1001700008F057C08093920064EF71E080E090E057
:1001800067D21092A5001092A4001092A9001092BC
:10019000A8001092A7001092A6001092940010924E
:1001A0009500109296001092970010929F00109266
:1001B0009E00C1E0C0938F0084E190E0A0E0B0E039
:1001C00080937B0090937C00A0937D00B0937E0091
:1001D000C0937A0010929D0010929C0006D260930A
:1001E0008B0070938C0080938D0090938E006093B1
:1001F0007F007093800080938100909382006093D1
:100200008300709384008093850090938600C09350
:1002100091008CE38EBD6CE271E080E090E0CF91C4
:1002200017C210929200A8CFCF92DF92EF92FF9266
:100230000F931F93CF93DF93D8D160938700709370
:1002400088008093890090938A0000918B00109120
:100250008C0020918D0030918E006B017C01C01AC2
:10026000D10AE20AF30A97018601C090AA00D09051
:10027000AB000D2C000CEE08FF080C151D052E051B
:100280003F0584F060938B0070938C0080938D0009
:1002900090938E0083E0D9D260E0811101C061E0CB
:1002A00083E084D28091A2009091A3009093A1005A
:1002B0008093A0008091A4009091A5009093A3004A
:1002C0008093A2008091A8009091A9009093A7002C
:1002D0008093A60081E804D29093A9008093A8009F
:1002E00082E8FED19093A5008093A4001092930021
:1002F000809193008330D0F481E8F2D1EC0182E860
:10030000EFD12091A8003091A9002C173D0724F4CB
:10031000D093A900C093A8009093A5008093A40057
:10032000809193008F5F80939300E2CF8091A4002F
:100330009091A500880F991F880F991F9093A50091
:100340008093A40052D160938700709388008093BB
:10035000890090938A00C0908300D0908400E09040
:100360008500F09086006C197D098E099F09C09068
:100370007B00D0907C00E0907D00F0907E006C15BA
:100380007D058E059F050CF44FC0A89580918700D0
:1003900090918800A0918900B0918A008093830099
:1003A00090938400A0938500B0938600C090940041
:1003B000D0909500E0909600F0909700C092980041
:1003C000D0929900E0929A00F0929B00C091A80010
:1003D000D091A9006091A4007091A500072E000C97
:1003E000880B990B9E010D2E000C440B550B5CD213
:1003F000609394007093950080939600909397007B
:10040000209192002C171D060CF047C021E020938C
:100410007A00C616D706E806F90679F484EF91E06B
:100420009093AB008093AA00DF91CF911F910F9121
:10043000FF90EF90DF90CF900895C616D706E8069C
:10044000F9069CF480E991E09093AB008093AA00B8
:1004500080919100882309F447C08EB5883C08F04C
:100460003EC08EB58F5F8EBDDFCF8CE291E0909362
:10047000AB008093AA008091A6009091A700C817B6
:10048000D9071CF420939100E3CF81E09091910073
:10049000911180E080939100DBCF8CE291E090930A
:1004A000AB008093AA008CE38EBD81E08093910025
:1004B000109294001092950010929600109297005E
:1004C0001092A9001092A80010929F0010929E0016
:1004D00080937A0010929D0010929C00A5CF88EC2A
:1004E0008EBD10929100A0CF8EB58B3018F08EB5D6
:1004F0008150B9CF8AE08EBD81E08093910094CF86
:100500001F920F920FB60F9211248F93AF93BF9348
:10051000EF93FF93A0917800B091790089E0E6E62F
:10052000F0E001900D928A95E1F7FF91EF91BF9174
:10053000AF918F910F900FBE0F901F90189589E08B
:1005400090E0D1D190937900809378000895AAD05B
:10055000ACDD6ADEFECF1F920F920FB60F92112410
:100560002F933F938F939F93AF93BF938091AD0051
:100570009091AE00A091AF00B091B0003091AC006E
:1005800026E0230F2D3768F129E8230F0396A11DDC
:10059000B11D2093AC008093AD009093AE00A0936A
:1005A000AF00B093B0008091B1009091B200A091E3
:1005B000B300B091B4000196A11DB11D8093B100AC
:1005C0009093B200A093B300B093B400BF91AF91E9
:1005D0009F918F913F912F910F900FBE0F901F9081
:1005E00018950296A11DB11DD4CF2FB7F894609134
:1005F000AD007091AE008091AF009091B0002FBF20
:1006000008953FB7F8948091B1009091B200A09105
:10061000B300B091B40022B708B601FE05C02F3F69
:1006200019F00196A11DB11D3FBFBA2FA92F982F18
:100630008827BC01CD01620F711D811D911D43E012
:10064000660F771F881F991F4A95D1F7089508955F
:10065000CF92DF92EF92FF92CF93DF936B017C01F9
:10066000D0DFEB01C114D104E104F10461F0EFDF4C
:10067000C8DF6C1B7D0B683E7340A0F3C114D1042E
:10068000E104F10439F4DF91CF91FF90EF90DF9016
:10069000CF90089581E0C81AD108E108F108C85147
:1006A000DC4FE6CF83E08ABD82E083BF789489B7D0
:1006B000826089BF87B5811107C082E887BD07B412
:1006C00000FEFDCF86E887BD80E48CBD8FEF8DBD39
:1006D00084EC80BF83E886B908958093B5000895BF
:1006E0009091B5009295990F990F907C8F70982BEF
:1006F00097B997B18091B500880F880F8071892BC9
:1007000087B9369A3699FECF84B195B10895CF93C3
:10071000DF9387FF09C08F7771F1813071F18230EB
:1007200071F1833071F18FEF90E0FC01EC5DFF4FD0
:100730002491865D9F4FFC0184918823C9F090E04D
:10074000880F991FFC01E45CFF4FA591B491FC0157
:10075000EA5CFF4FC591D491611115C09FB7F89421
:100760008C91209582238C938881282328839FBF96
:10077000DF91CF91089585E0D7CF82E0D5CF84E097
:10078000D3CF83E0D1CF623051F49FB7F8943C913E
:10079000822F809583238C93E8812E2BE7CF8FB710
:1007A000F894EC912E2B2C938FBFE2CF87FF09C0DA
:1007B0008F7771F1813071F1823071F1833071F195
:1007C0008FEF90E0FC01E25EFF4F3491FC01EC5DA5
:1007D000FF4F2491FC01E65DFF4FE491EE23B9F059
:1007E000332329F03130E1F48AB58F778ABDF0E008
:1007F000EE0FFF1FEA5CFF4FA591B4918FB7611117
:1008000020C0F894EC9120952E232C938FBF08954F
:1008100085E0D7CF82E0D5CF84E0D3CF83E0D1CFBE
:10082000323019F48AB58F7DE1CF333021F480B7AF
:100830008F7D80BFDCCF3430D1F68CB58F7D8CBD01
:10084000D6CFF894EC912E2BE0CF87FF09C08F779D
:1008500001F1813001F1823001F1833001F18FEF3C
:1008600090E0FC01EC5DFF4F2491FC01E65DFF4F41
:10087000E491EE23B1F0F0E0EE0FFF1FE05DFF4FDB
:10088000A591B491EC91E22381E090E061F480E0E5
:10089000089585E0E5CF82E0E3CF84E0E1CF83E017
:1008A000DFCF80E090E00895EE27FF27AA27BB273F
:1008B00008C0A20FB31FE41FF51F220F331F441FF0
:1008C000551F969587957795679598F37040A9F78A
:1008D000009799F7BD01CF010895EE0FFF1F059016
:1008E000F491E02D09940F931F93CF93DF938230FF
:1008F000910510F482E090E0E091B800F091B90029
:1009000030E020E0B0E0A0E0309799F42115310507
:1009100009F44AC0281B390B24303105D8F58A81E7
:100920009B816115710589F1FB0193838283FE012F
:1009300011C0408151810281138148175907E0F0AD
:100940004817590799F4109761F012960C93129773
:1009500013961C933296CF01DF91CF911F910F9187
:1009600008950093B8001093B900F4CF2115310514
:1009700051F04217530738F0A901DB019A01BD017C
:10098000DF01F801C1CFEF01F9CF9093B900809357
:10099000B800CDCFFE01E20FF31F81939193225057
:1009A000310939832883D7CF2091B6003091B70021
:1009B000232B41F420916200309163003093B70003
:1009C0002093B6002091600030916100211531051F
:1009D00041F42DB73EB74091640050916500241B4F
:1009E000350BE091B600F091B700E217F307A0F4E1
:1009F0002E1B3F0B2817390778F0AC014E5F5F4F75
:100A00002417350748F04E0F5F1F5093B7004093EF
:100A1000B600819391939FCFF0E0E0E09CCFCF931D
:100A2000DF930097E9F0FC01329713821282A091C4
:100A3000B800B091B900ED0130E020E01097A1F4CA
:100A400020813181820F931F2091B6003091B70031
:100A50002817390709F061C0F093B700E093B6009A
:100A6000DF91CF910895EA01CE17DF07E8F54A81BB
:100A70005B819E0141155105B1F7E901FB83EA83D2
:100A800049915991C40FD51FEC17FD0761F480817E
:100A900091810296840F951FE90199838883828151
:100AA00093819B838A83F0E0E0E012968D919C9184
:100AB00013970097B9F52D913C911197CD010296AE
:100AC000820F931F2091B6003091B7002817390785
:100AD00039F6309751F51092B9001092B800B093E2
:100AE000B700A093B600BCCFD383C28340815181AD
:100AF000840F951FC817D90761F44E5F5F4F888137
:100B00009981480F591F518340838A819B81938328
:100B100082832115310509F0B0CFF093B900E0933D
:100B2000B8009ECFFD01DC01C0CF13821282D7CF67
:100B3000FB01DC018D91019080190110D9F3990B13
:100B40000895E199FECF9FBB8EBBE09A99278DB3A4
:100B50000895262FE199FECF1CBA9FBB8EBB2DBBFB
:100B60000FB6F894E29AE19A0FBE01960895F894B0
:020B7000FFCFB5
:100B72000000BA0080007764747265736574007750
:080B8200647472657365740070
:00000001FF
