:1000000021C045C044C043C042C0B6C240C03FC08A
:100010003EC03DC03CC03BC073C239C038C00102C5
:100020000000040001020408102002020202020281
:100030000000000036000000000038000000000052
:1000400037009F0211241FBECFE5D2E0DEBFCDBF37
:1000500010E0A0E6B0E0E0ECFBE002C005900D92FD
:10006000A837B107D9F720E0A8E7B0E001C01D929A
:10007000AA3BB207E1F710E0C2E2D0E003C021974B
:10008000FE0156D4C132D107D1F761D297C5B8CF9E
:100090006FE670E0809178009091790070D521E052
:1000A000892B09F020E0822F089560E082E060D380
:1000B00060E084E05DD360E080E05AD384E013D355
:1000C00081E814D3E5DF80939100E0917800F0910E
:1000D0007900108284B7877F84BF88E181BD89E67B
:1000E00081BD61E081E044D387B5826087BD07B4FC
:1000F00000FEFDCF87B5846087BD1EBC8FEF8DBD30
:1001000086EF80BF61E083E033D384EF8093AB0060
:1001100010929300A89504B601FE05C0809191004D
:10012000882309F461C064E670E080E090E0A1D229
:1001300080E090E02DD5803418F48093930002C0C5
:100140001092930064EF71E080E090E092D2109200
:10015000A6001092A5001092AA001092A900109279
:1001600095001092960010929700109298001092AD
:10017000A00010929F0081E0809390008AE590E0BB
:10018000A0E0B0E080937C0090937D00A0937E007F
:10019000B0937F0010927B0010927A0010929E0024
:1001A00010929D0033D260938C0070938D008093E9
:1001B0008E0090938F0060938000709381008093F5
:1001C00082009093830060938400709385008093F5
:1001D000860090938700109292008DE78EBD6CE2AE
:1001E00071E080E090E045C264EF71E080E090E073
:1001F00040D281E87BD28093A9009093AA00682F17
:1002000080E090E0CDD464E670E080E090E031D210
:1002100061E083E0FCD26CEB72E080E090E029D2F8
:1002200060E083E0F4D2A8957ECFCF92DF92EF9288
:10023000FF920F931F93CF93DF93E8D160938800D1
:100240007093890080938A0090938B0000918C00BA
:1002500010918D0020918E0030918F006B017C01F8
:10026000C01AD10AE20AF30A0091AB0010E020E0C4
:1002700030E0C016D106E206F3068CF060938C00E5
:1002800070938D0080938E0090938F0083E004D351
:10029000882311F060E001C061E083E0B8D2809172
:1002A000A3009091A4009093A2008093A10080915C
:1002B000A5009091A6009093A4008093A300809144
:1002C000A9009091AA009093A8008093A700109293
:1002D000AA001092A9001092A6001092A5001092F8
:1002E0009400809194008430F8F482E8FFD1EC010E
:1002F00081E8FCD12091A5003091A600C20FD31F48
:10030000D093A600C093A5002091A9003091AA0027
:10031000820F931F9093AA008093A900809194006C
:100320008F5F80939400DDCF8091A9009091AA0007
:1003300097FD039695958795959587959093AA0037
:100340008093A9008091A5009091A60097FD039647
:100350008C7F9093A6008093A50058D1609388006D
:100360007093890080938A0090938B0000918400A1
:100370001091850020918600309187006B017C01EF
:10038000C01AD10AE20AF30A00917C0010917D00A4
:1003900020917E0030917F00C016D106E206F30660
:1003A0000CF4A5C0A8956093840070938500809399
:1003B00086009093870000919500109196002091FF
:1003C0009700309198000093990010939A00209321
:1003D0009B0030939C00C091A900D091AA00E091AD
:1003E000A500F091A600CE01BF0191D2092E000C0C
:1003F000AA0BBB0B8093950090939600A093970057
:10040000B09398004091930050E04C175D07ACF515
:10041000081719072A073B0721F484EF8093AB00E4
:1004200066C0081719072A073B0724F480E9809360
:10043000AB000AC08CE28093AB0081E09091920007
:10044000911180E0809392006091A1007091A200D0
:100450006E0F7F1F6F5F7F4F77FF02C06F5F7F4F11
:10046000759567958091A3009091A400681779070E
:1004700024F581E08093920020C08CE28093AB0051
:100480008DE78EBD1092920010929500109296000A
:1004900010929700109298001092AA001092A90052
:1004A0001092A00010929F0010927B0010927A0090
:1004B00010929E0010929D001AC080919200882395
:1004C00059F08EB58A3F18F48EB58F5F0AC08AEF57
:1004D0008EBD109292000BC08EB5823020F08EB58A
:1004E00081508EBD04C081E08EBD80939200DF916B
:1004F000CF911F910F91FF90EF90DF90CF900895D3
:100500001F920F920FB60F9211248F93AF93BF9348
:10051000EF93FF93A0917800B091790089E0E6E62F
:10052000F0E001900D928A95E1F7FF91EF91BF9174
:10053000AF918F910F900FBE0F901F90189589E08B
:1005400090E0FCD19093790080937800089581B772
:1005500081BFB4D0AADD69DEFECF80B7807F80BFC7
:1005600080B7806880BF8CB580648CBD8FEF8DBDF7
:1005700080B7846080BF08951F920F920FB60F92CC
:1005800011242F933F938F939F93AF93BF938091A9
:10059000AD009091AE00A091AF00B091B00030914D
:1005A000AC0026E0230F2D3730F029E8230F039607
:1005B000A11DB11D03C00296A11DB11D2093AC0069
:1005C0008093AD009093AE00A093AF00B093B000C5
:1005D0008091B1009091B200A091B300B091B400AD
:1005E0000196A11DB11D8093B1009093B200A0931C
:1005F000B300B093B400BF91AF919F918F913F91A1
:100600002F910F900FBE0F901F9018952FB7F89451
:100610006091AD007091AE008091AF009091B000FC
:100620002FBF08953FB7F8948091B1009091B20028
:10063000A091B300B091B40022B708B601FE05C086
:100640002F3F19F00196A11DB11D3FBFBA2FA92F51
:10065000982F8827820F911DA11DB11DBC01CD01CE
:1006600043E0660F771F881F991F4A95D1F70895B9
:100670000895CF92DF92EF92FF92CF93DF936B01B9
:100680007C01D0DFEB01C114D104E104F10479F065
:10069000EFDFC8DF6C1B7D0B683E7340A0F381E089
:1006A000C81AD108E108F108C851DC4FF2CFDF9138
:1006B000CF91FF90EF90DF90CF9008958AB5826040
:1006C0008ABD8AB581608ABD83B7887F826083BF17
:1006D000789489B7826089BF40DF86B18877836864
:1006E00086B9379A08958093B50008959091B50022
:1006F0009295990F990F907C8F70892B87B987B14C
:100700009091B50092FB222720F930E094E0220F6F
:10071000331F9A95E1F7282B27B9369A3699FECFE1
:1007200084B125B190E0922B0895813031F48AB5DF
:100730008F778ABD8AB58F7B07C0823039F48AB53E
:100740008F7D8ABD8AB58F7E8ABD0895833039F446
:1007500080B78F7D80BF80B78F7E80BF0895843043
:1007600031F48CB58F7D8CBD8CB58F7E8CBD08959A
:10077000CF93DF9387FF11C08F7741F0813041F035
:10078000823041F0833041F08FEF07C085E005C033
:1007900082E003C084E001C083E090E0FC01EC5DF6
:1007A000FF4F2491FC01E65DFF4F8491882361F1A6
:1007B00090E0880F991FFC01E45CFF4FC591D49134
:1007C000FC01EA5CFF4FA591B491611109C09FB78C
:1007D000F8948881209582238883EC912E230BC086
:1007E000623061F49FB7F8948881322F309583236B
:1007F0008883EC912E2B2C939FBF06C08FB7F89463
:10080000E8812E2B28838FBFDF91CF9108951F930E
:10081000CF93DF93162F87FF11C08F7741F0813080
:1008200041F0823041F0833041F08FEF07C085E026
:1008300005C082E003C084E001C083E0282F30E0DF
:10084000F901E25EFF4F8491F901EC5DFF4FD49115
:10085000F901E65DFF4FC491CC23D1F0811165DF32
:10086000EC2FF0E0EE0FFF1FEA5CFF4FA591B49173
:10087000111108C09FB7F8948C91D095D823DC93C0
:100880009FBF06C08FB7F894EC91DE2BDC938FBF2F
:10089000DF91CF911F910895CF93DF9387FF11C010
:1008A0008F7741F0813041F0823041F0833041F068
:1008B0008FEF07C085E005C082E003C084E001C07F
:1008C00083E0282F30E0F901E25EFF4F8491F901C7
:1008D000EC5DFF4FD491F901E65DFF4FC491CC234D
:1008E00089F0811122DFEC2FF0E0EE0FFF1FE05DB9
:1008F000FF4FA591B491EC91ED2381E090E021F4BC
:1009000080E002C080E090E0DF91CF910895002464
:10091000552704C0080E591F880F991F009729F00A
:1009200076956795B8F37105B9F7802D952F0895E1
:10093000EE0FFF1F0590F491E02D09940F931F9384
:10094000CF93DF938230910510F482E090E0E09144
:10095000B800F091B90020E030E0A0E0B0E03097BE
:1009600019F1408151810281138148175907C8F05C
:100970008417950769F4109731F012960C9312972B
:1009800013961C9327C00093B8001093B90022C09F
:100990002115310519F04217530718F49A01BD01CA
:1009A000EF01DF01F801DBCF21153105F9F0281B3C
:1009B000390B2430310580F48A819B8161157105E2
:1009C00021F0FB019383828304C09093B90080934C
:1009D000B800FE01329644C0FE01E20FF31F81937E
:1009E000919322503109398328833AC02091B6006F
:1009F0003091B700232B41F42091620030916300C5
:100A00003093B7002093B6002091600030916100D0
:100A10002115310541F42DB73EB740916400509146
:100A20006500241B350BE091B600F091B700E2178A
:100A3000F307A0F42E1B3F0B2817390778F0AC0101
:100A40004E5F5F4F2417350748F04E0F5F1F5093DE
:100A5000B7004093B6008193919302C0E0E0F0E0CC
:100A6000CF01DF91CF911F910F910895CF93DF9325
:100A7000009709F481C0FC01329713821282A09181
:100A8000B800B091B900109781F420813181820FB4
:100A9000931F2091B6003091B7002817390751F500
:100AA000F093B700E093B60067C0ED0120E030E0BE
:100AB000CE17DF0740F44A815B819E014115510545
:100AC000F1F0EA01F5CFD383C28340815181840FD5
:100AD000951FC817D90759F488819981840F951FEC
:100AE0000296918380838A819B81938382832115DF
:100AF000310529F4F093B900E093B8003DC0E90155
:100B0000FB83EA8349915991C40FD51FEC17FD0768
:100B100061F480819181840F951F0296E901998388
:100B20008883828193819B838A83E0E0F0E0129640
:100B30008D919C911397009719F0FD01DC01F7CF7F
:100B40008D919C9111979D012E5F3F4F820F931FB6
:100B50002091B6003091B7002817390769F4309713
:100B600029F41092B9001092B80002C013821282C8
:100B7000B093B700A093B600DF91CF910895FB0129
:100B8000DC018D91019080190110D9F3990B089522
:100B9000E199FECF9FBB8EBBE09A99278DB3089554
:100BA000262FE199FECF1CBA9FBB8EBB2DBB0FB683
:100BB000F894E29AE19A0FBE01960895F894FFCF57
:100BC0000000BA0080007764747265736574007702
:080BD000647472657365740022
:00000001FF
