:1000000020C02FC02EC02DC02CC096C22AC029C02F
:1000100028C027C026C025C024C023C022C001029A
:100020000000040001020408102002020202020281
:100030000000000036000000000038000000000052
:10004000370011241FBECFE5D2E0DEBFCDBF20E0D8
:10005000A0E6B0E001C01D92AE39B207E1F757D279
:100060005DC4CECF60E082E063D360E084E060D323
:1000700060E080E05DD384E016D381E817D361E0CF
:1000800081E056D387B5826087BD07B400FEFDCFFF
:1000900087B5846087BD1EBC8FEF8DBD87EF80BFA5
:1000A00061E083E045D384EF809393001092790060
:1000B00004B601FE1FC064EF71E080E090E0B9D2A9
:1000C00081E8F4D280938F0090939000682F80E0B5
:1000D00090E016D464E670E080E090E0AAD261E09F
:1000E00083E075D36CEB72E080E090E0A2D260E038
:1000F00083E06DD364E670E080E090E09AD280E027
:1001000090E0F6D3803418F48093790002C0109206
:10011000790064EF71E080E090E08BD21092920061
:10012000109291001092900010928F0010927F0018
:1001300010928000109281001092820010927B0039
:1001400010927C0010927D0010927E00109261004F
:1001500010926000109288001092870081E08093D6
:1001600077008AEF90E0A0E0B0E080936200909387
:100170006300A0936400B093650028D2609372007E
:100180007093730080937400909375006093660081
:1001900070936700809368009093690017D2609312
:1001A0006A0070936B0080936C0090936D001092C6
:1001B00078008AEF8EBD6CE271E080E090E039C299
:1001C000CF92DF92EF92FF920F931F93FFD1609334
:1001D0006E0070936F008093700090937100009197
:1001E00072001091730020917400309175006B01C2
:1001F0007C01C01AD10AE20AF30A0091930010E0D0
:1002000020E030E0C016D106E206F3068CF06093E1
:10021000720070937300809374009093750083E074
:100220001BD3882311F060E001C061E083E0CFD2EE
:10023000D9D160936E0070936F008093700090939B
:10024000710000916A0010916B0020916C00309158
:100250006D006B017C01C01AD10AE20AF30A009119
:100260006200109163002091640030916500C01617
:10027000D106E206F3060CF443C160936A00709362
:100280006B0080936C0090936D008EB58A3F18F0E0
:1002900088EC8093930080917F0090918000A091E2
:1002A0008100B09182008093830090938400A0939A
:1002B0008500B09386008091910090919200909378
:1002C0008E0080938D0080918B0090918C00909394
:1002D0008A008093890080918F0090919000909384
:1002E0008C0080938B001092900010928F001092DF
:1002F00092001092910010927A0080917A008230E0
:10030000F0F481E8D3D120918F0030919000820FDA
:10031000931F9093900080938F0082E8C7D1209123
:10032000910030919200820F931F909392008093DE
:10033000910080917A008F5F80937A00DECF4091A8
:100340008F005091900057FF02C04F5F5F4FFA013E
:10035000F595E795F0939000E0938F002091910040
:100360003091920037FF02C02F5F3F4F35952795A0
:10037000220F331F220F331F3093920020939100DE
:10038000CF01B901A4D2092E000CAA0BBB0B80939C
:100390007F0090938000A0938100B09382004091F1
:1003A000790050E04E175F070CF074C040918B004D
:1003B00050918C00BF01641B750BAB0177FF03C02C
:1003C000519541955109483051051CF4109278001F
:1003D0007DC0C0908300D0908400E0908500F090B4
:1003E0008600C816D906EA06FB0624F544EF4093BA
:1003F000930040917B0050917C0060917D00709152
:100400007E00481759076A077B077CF480937B00BE
:1004100090937C00A0937D00B0937E003093880081
:10042000209387008EB58093760010926100109221
:1004300060004CC08C159D05AE05BF05A4F480E995
:10044000809393004830510539F081E09091780015
:10045000911180E0809378008FEF9FEF909361007F
:100460008093600033C08091870090918800821B48
:10047000930B97FF03C09195819591098931914024
:100480002CF110927B0010927C0010927D00109253
:100490007E001CC08CE2809393008AEF8EBD109288
:1004A000780010927F0010928000109281001092CC
:1004B00082001092610010926000109290001092E1
:1004C0008F0010928C0010928B001AC080917800DF
:1004D000882359F08EB58A3F18F48EB58F5F0AC015
:1004E0008AEF8EBD109278000BC08EB5823020F05E
:1004F0008EB581508EBD04C081E08EBD80937800A2
:100500001F910F91FF90EF90DF90CF90089581B7EA
:1005100081BFB4D0A7DD54DEFECF80B7807F80BF1F
:1005200080B7806880BF8CB580648CBD8FEF8DBD37
:1005300080B7846080BF08951F920F920FB60F920C
:1005400011242F933F938F939F93AF93BF938091E9
:10055000950090919600A0919700B09198003091ED
:10056000940026E0230F2D3730F029E8230F03965F
:10057000A11DB11D03C00296A11DB11D20939400C1
:100580008093950090939600A0939700B093980065
:100590008091990090919A00A0919B00B0919C004D
:1005A0000196A11DB11D8093990090939A00A0938C
:1005B0009B00B0939C00BF91AF919F918F913F9111
:1005C0002F910F900FBE0F901F9018952FB7F89492
:1005D000609195007091960080919700909198009D
:1005E0002FBF08953FB7F8948091990090919A0099
:1005F000A0919B00B0919C0022B708B601FE05C0F7
:100600002F3F19F00196A11DB11D3FBFBA2FA92F91
:10061000982F8827820F911DA11DB11DBC01CD010E
:1006200043E0660F771F881F991F4A95D1F70895F9
:100630000895CF92DF92EF92FF92CF93DF936B01F9
:100640007C01D0DFEB01C114D104E104F10479F0A5
:10065000EFDFC8DF6C1B7D0B683E7340A0F381E0C9
:10066000C81AD108E108F108C851DC4FF2CFDF9178
:10067000CF91FF90EF90DF90CF9008958AB5826080
:100680008ABD8AB581608ABD83B7887F826083BF57
:10069000789489B7826089BF40DF86B188778368A4
:1006A00086B9379A089580939D00089590919D0092
:1006B0009295990F990F907C8F70892B87B987B18C
:1006C00090919D0092FB222720F930E094E0220FC8
:1006D000331F9A95E1F7282B27B9369A3699FECF22
:1006E00084B125B190E0922B0895813031F48AB520
:1006F0008F778ABD8AB58F7B07C0823039F48AB57F
:100700008F7D8ABD8AB58F7E8ABD0895833039F486
:1007100080B78F7D80BF80B78F7E80BF0895843083
:1007200031F48CB58F7D8CBD8CB58F7E8CBD0895DA
:10073000CF93DF9387FF11C08F7741F0813041F075
:10074000823041F0833041F08FEF07C085E005C073
:1007500082E003C084E001C083E090E0FC01EC5D36
:10076000FF4F2491FC01E65DFF4F8491882361F1E6
:1007700090E0880F991FFC01E45CFF4FC591D49174
:10078000FC01EA5CFF4FA591B491611109C09FB7CC
:10079000F8948881209582238883EC912E230BC0C6
:1007A000623061F49FB7F8948881322F30958323AB
:1007B0008883EC912E2B2C939FBF06C08FB7F894A3
:1007C000E8812E2B28838FBFDF91CF9108951F934F
:1007D000CF93DF93162F87FF11C08F7741F08130C1
:1007E00041F0823041F0833041F08FEF07C085E067
:1007F00005C082E003C084E001C083E0282F30E020
:10080000F901E25EFF4F8491F901EC5DFF4FD49155
:10081000F901E65DFF4FC491CC23D1F0811165DF72
:10082000EC2FF0E0EE0FFF1FEA5CFF4FA591B491B3
:10083000111108C09FB7F8948C91D095D823DC9300
:100840009FBF06C08FB7F894EC91DE2BDC938FBF6F
:10085000DF91CF911F910895CF93DF9387FF11C050
:100860008F7741F0813041F0823041F0833041F0A8
:100870008FEF07C085E005C082E003C084E001C0BF
:1008800083E0282F30E0F901E25EFF4F8491F90107
:10089000EC5DFF4FD491F901E65DFF4FC491CC238D
:1008A00089F0811122DFEC2FF0E0EE0FFF1FE05DF9
:1008B000FF4FA591B491EC91ED2381E090E021F4FC
:1008C00080E002C080E090E0DF91CF9108950024A5
:1008D000552704C0080E591F880F991F009729F04B
:1008E00076956795B8F37105B9F7802D952F089522
:1008F000E199FECF9FBB8EBBE09A99278DB30895F7
:10090000262FE199FECF1CBA9FBB8EBB2DBB0FB625
:10091000F894E29AE19A0FBE01960895F894FFCFF9
:00000001FF
