:1000000020C03AC039C038C037C086C235C034C0FD
:1000100033C032C031C030C02FC02EC02DC001024D
:100020000000040001020408102002020202020281
:100030000000000036000000000038000000000052
:10004000370011241FBECFE5D2E0DEBFCDBF20E0D8
:10005000A0E6B0E001C01D92AE38B207E1F710E0B3
:10006000A0E6B0E0E0E0F9E002C005900D92A03615
:10007000B107D9F73CD242C4C3CF60E080E048D397
:1000800081E001D382E002D3F89461E081E040D3C3
:1000900087B5826087BD07B400FEFDCF87B5846059
:1000A00087BD82EE80BF8FEF8DBD80E489BF1EBC0F
:1000B000789460E082E02CD361E083E029D360E0B3
:1000C00084E026D360E085E023D384EF8093810031
:1000D00010928200109283001092710064E670E02A
:1000E00080E090E096D285E0A7D3892B79F46CE28A
:1000F00071E080E090E08DD282E0C8D280937D00F4
:1001000090937E00682F80E090E0EAD364E670E090
:1001100080E090E07ED280E090E0DAD380937100BE
:1001200010926A0083E090E0D3D380936A0010922B
:10013000800010927F0010927E0010927D0010923D
:100140007300109274001092750010927600109255
:100150006E0010926D002AD2609364007093650067
:10016000809366009093670082E080938200809382
:100170006C008FEF80936B0081E080937000109291
:100180007C0010927B000895CF92DF92EF92FF9255
:100190000F931F930BD26093600070936100809364
:1001A00062009093630000916400109165002091BB
:1001B0006600309167006B017C01C01AD10AE20A27
:1001C000F30A0091810010E020E030E0C016D10673
:1001D000E206F30688F060936400709365008093F4
:1001E00066009093670083E027D3882311F060E0D6
:1001F00001C061E083E0DBD2809182008E3F10F08D
:100200008DE701C08AEF8093810080917300909107
:100210007400A0917500B091760080937700909360
:100220007800A0937900B0937A0080917D0090913E
:100230007E0090937C0080937B001092800010924F
:100240007F0010927E0010927D00109272008091CB
:10025000720081111EC082E019D220917D00309180
:100260007E00820F931F90937E0080937D0084E038
:100270000DD220917F0030918000820F931F9093C8
:10028000800080937F00809172008F5F8093720066
:10029000DECF80917F009091800020917D00309191
:1002A0007E004091710050E04217530738F4241B40
:1002B000350B30937E0020937D0004C010927E00A9
:1002C00010927D00E0917D00F0917E0020918200EF
:1002D000309709F4C4C030916C00311102C02093F2
:1002E0006C00BF01E4D2A0E0B0E080937300909373
:1002F0007400A0937500B093760040917700509100
:1003000078006091790070917A0084179507A607AC
:10031000B707F1F410926F0080917B0090917C0000
:100320008E179F0718F4109270000CC0E817F90799
:1003300010F481E005C081E090917000911180E09F
:100340008093700010926D0084EF80938100C4C090
:1003500030916F00383018F43F5F30936F0084178E
:100360009507A607B70708F077C020936E0081E0D5
:1003700090917000911180E08093700080916D00E9
:10038000882309F482C010926F0090E0820F911DC3
:1003900001969695879503969093690080936800DF
:1003A000892F9927892B39F08FEF90E09FD0909378
:1003B00069008093680080916800809382001092A9
:1003C0006D000FEF10E09801281B3109C9018ED094
:1003D00090936900809368008091820090E086D0BD
:1003E0002091680030916900820F931F292F3327D5
:1003F000232B29F4909369008093680004C0109324
:100400006900009368008091680080936B00809180
:10041000820090E002976AD0909369008093680010
:100420008091820090E062D0209168003091690054
:10043000821B930B292F3327232B19F4823091052C
:1004400010F482E090E090936900809368008091BE
:10045000680080936C0040C020936D0016C010921D
:10046000730010927400109275001092760088E06C
:1004700080936F0081E08093700010926D0082E0A5
:1004800080936C008FEF80936B009091700080914F
:100490006F00992369F090916B00622F70E0492FF3
:1004A00050E0481B510964177507A4F4820F0FC070
:1004B00090916C00622F70E0691B710949E050E077
:1004C000481B5109461757072CF4820F8950809317
:1004D000820002C090938200809182008EBD1F91A5
:1004E0000F91FF90EF90DF90CF900895089581B71E
:1004F00081BFB4D0C2DD48DEFECF80B7807F80BF31
:1005000080B7806880BF8CB580648CBD8FEF8DBD57
:1005100080B7876080BF08951F920F920FB60F9229
:1005200011242F933F938F939F93AF93BF93809109
:10053000850090918600A0918700B091880030914D
:10054000840026E0230F2D3730F029E8230F03968F
:10055000A11DB11D03C00296A11DB11D20938400F1
:100560008093850090938600A0938700B0938800C5
:100570008091890090918A00A0918B00B0918C00AD
:100580000196A11DB11D8093890090938A00A093CC
:100590008B00B0938C00BF91AF919F918F913F9151
:1005A0002F910F900FBE0F901F9018952FB7F894B2
:1005B00060918500709186008091870090918800FD
:1005C0002FBF08953FB7F8948091890090918A00D9
:1005D000A0918B00B0918C0022B708B601FE05C037
:1005E0002F3F19F00196A11DB11D3FBFBA2FA92FB2
:1005F000982F8827820F911DA11DB11DBC01CD012F
:1006000043E0660F771F881F991F4A95D1F7089519
:100610000895CF92DF92EF92FF92CF93DF936B0119
:100620007C01D0DFEB01C114D104E104F10479F0C5
:10063000EFDFC8DF6C1B7D0B683E7340A0F381E0E9
:10064000C81AD108E108F108C851DC4FF2CFDF9198
:10065000CF91FF90EF90DF90CF9008958AB58260A0
:100660008ABD8AB581608ABD83B7887F836083BF76
:10067000789489B7826089BF40DF86B188778668C1
:1006800086B9379A089580938D00089590918D00D2
:100690009295990F990F907C8F70892B87B987B1AC
:1006A00090918D0092FB222720F930E094E0220FF8
:1006B000331F9A95E1F7282B27B9369A3699FECF42
:1006C00084B125B190E0922B0895813031F48AB540
:1006D0008F778ABD8AB58F7B07C0823039F48AB59F
:1006E0008F7D8ABD8AB58F7E8ABD0895833039F4A7
:1006F00080B78F7D80BF80B78F7E80BF08958430A4
:1007000031F48CB58F7D8CBD8CB58F7E8CBD0895FA
:10071000CF93DF9387FF11C08F7741F0813041F095
:10072000823041F0833041F08FEF07C085E005C093
:1007300082E003C084E001C083E090E0FC01EC5D56
:10074000FF4F2491FC01E65DFF4F8491882361F106
:1007500090E0880F991FFC01E45CFF4FC591D49194
:10076000FC01EA5CFF4FA591B491611109C09FB7EC
:10077000F8948881209582238883EC912E230BC0E6
:10078000623061F49FB7F8948881322F30958323CB
:100790008883EC912E2B2C939FBF06C08FB7F894C3
:1007A000E8812E2B28838FBFDF91CF9108951F936F
:1007B000CF93DF93162F87FF11C08F7741F08130E1
:1007C00041F0823041F0833041F08FEF07C085E087
:1007D00005C082E003C084E001C083E0282F30E040
:1007E000F901E25EFF4F8491F901EC5DFF4FD49176
:1007F000F901E65DFF4FC491CC23D1F0811165DF93
:10080000EC2FF0E0EE0FFF1FEA5CFF4FA591B491D3
:10081000111108C09FB7F8948C91D095D823DC9320
:100820009FBF06C08FB7F894EC91DE2BDC938FBF8F
:10083000DF91CF911F910895CF93DF9387FF11C070
:100840008F7741F0813041F0823041F0833041F0C8
:100850008FEF07C085E005C082E003C084E001C0DF
:1008600083E0282F30E0F901E25EFF4F8491F90127
:10087000EC5DFF4FD491F901E65DFF4FC491CC23AD
:1008800089F0811122DFEC2FF0E0EE0FFF1FE05D19
:10089000FF4FA591B491EC91ED2381E090E021F41C
:1008A00080E002C080E090E0DF91CF9108950024C5
:1008B000552704C0080E591F880F991F009729F06B
:1008C00076956795B8F37105B9F7802D952F089542
:1008D000E199FECF9FBB8EBBE09A99278DB3089517
:1008E000262FE199FECF1CBA9FBB8EBB2DBB0FB646
:1008F000F894E29AE19A0FBE01960895F894FFCF1A
:00000001FF
