:1000000020C02FC02EC02DC02CC05EC22AC029C067
:1000100028C027C026C025C024C023C022C001029A
:100020000000040001020408102002020202020281
:100030000000000036000000000038000000000052
:10004000370011241FBECFE5D2E0DEBFCDBF20E0D8
:10005000A0E6B0E001C01D92AB39B207E1F71FD2B4
:1000600025C4CECF60E082E02BD360E084E028D3CB
:1000700060E080E025D384E0DED281E8DFD284B77F
:10008000877F84BF88E181BD81E281BD61E081E03D
:1000900017D387B5826087BD07B400FEFDCF87B553
:1000A000846087BD1EBC8FEF8DBD86EF80BF61E091
:1000B00083E006D384EF8093900010927800A89597
:1000C00004B601FE20C064EF71E080E090E079D2D8
:1000D00081E8B4D280938E0090938F00682F80E0E7
:1000E00090E0D6D364E670E080E090E06AD261E010
:1000F00083E035D36CEB72E080E090E062D260E0A8
:1001000083E02DD3A89564E670E080E090E059D2BA
:1001100080E090E0B5D3803418F48093780002C07A
:100120001092780064EF71E080E090E04AD2109283
:100130008B0010928A0010928F0010928E00109205
:100140007A0010927B0010927C0010927D00109239
:1001500085001092840081E0809376008AE590E02B
:10016000A0E0B0E08093620090936300A0936400ED
:10017000B0936500109261001092600010928300AD
:1001800010928200EBD160937200709373008093A1
:10019000740090937500609366007093670080937D
:1001A00068009093690060936A0070936B0080937D
:1001B0006C0090936D00109277008DE78EBD6CE21D
:1001C00071E080E090E0FDC1CF92DF92EF92FF926C
:1001D0000F931F93CF93DF93C1D160936E00709301
:1001E0006F008093700090937100009172001091E5
:1001F000730020917400309175006B017C01C01A6E
:10020000D10AE20AF30A0091900010E020E030E009
:10021000C016D106E206F3068CF06093720070936C
:100220007300809374009093750083E0DDD288237F
:1002300011F060E001C061E083E091D2809188001C
:1002400090918900909387008093860080918A0026
:1002500090918B00909389008093880080918E000C
:1002600090918F0090938D0080938C0010928F005E
:1002700010928E0010928B0010928A0010927900DA
:10028000809179008430F8F482E8D8D1EC0181E8DB
:10029000D5D120918A0030918B00C20FD31FD0930B
:1002A0008B00C0938A0020918E0030918F00820FC6
:1002B000931F90938F0080938E00809179008F5FC1
:1002C00080937900DDCF80918E0090918F0097FD13
:1002D0000396959587959595879590938F00809334
:1002E0008E0080918A0090918B0097FD03968C7F01
:1002F00090938B0080938A0031D160936E0070934D
:100300006F00809370009093710000916A001091CB
:100310006B0020916C0030916D006B017C01C01A64
:10032000D10AE20AF30A0091620010916300209161
:10033000640030916500C016D106E206F3060CF4A5
:10034000A4C060936A0070936B0080936C009093DC
:100350006D0000917A0010917B0020917C0030911B
:100360007D0000937E0010937F00209380003093E7
:100370008100C0918E00D0918F00E0918A00F091B1
:100380008B00CE01BF016BD2092E000CAA0BBB0B58
:1003900080937A0090937B00A0937C00B0937D00C3
:1003A0004091780050E04C175D07ACF5081719072D
:1003B0002A073B0721F484EF8093900066C008175A
:1003C00019072A073B0724F480E9809390000AC0AC
:1003D0008CE28093900081E090917700911180E011
:1003E0008093770060918600709187006E0F7F1F69
:1003F0006F5F7F4F77FF02C06F5F7F4F7595679587
:1004000080918800909189006817790724F581E030
:100410008093770020C08CE2809390008DE78EBDA2
:100420001092770010927A0010927B0010927C005C
:1004300010927D0010928F0010928E001092850015
:10044000109284001092610010926000109283005C
:10045000109282001AC080917700882359F08EB5DF
:100460008A3F18F48EB58F5F0AC08AEF8EBD109256
:1004700077000BC08EB5823020F08EB581508EBDD6
:1004800004C081E08EBD80937700A895DF91CF9165
:100490001F910F91FF90EF90DF90CF90089581B75B
:1004A00081BFB4D0DFDD90DEFECF80B7807F80BF1C
:1004B00080B7806880BF8CB580648CBD8FEF8DBDA8
:1004C00080B7846080BF08951F920F920FB60F927D
:1004D00011242F933F938F939F93AF93BF9380915A
:1004E000920090919300A0919400B091950030916A
:1004F000910026E0230F2D3730F029E8230F0396D3
:10050000A11DB11D03C00296A11DB11D2093910034
:100510008093920090939300A0939400B0939500E1
:100520008091960090919700A0919800B0919900C9
:100530000196A11DB11D8093960090939700A09302
:100540009800B0939900BF91AF919F918F913F9187
:100550002F910F900FBE0F901F9018952FB7F89402
:100560006091920070919300809194009091950019
:100570002FBF08953FB7F89480919600909197000F
:10058000A0919800B091990022B708B601FE05C06D
:100590002F3F19F00196A11DB11D3FBFBA2FA92F02
:1005A000982F8827820F911DA11DB11DBC01CD017F
:1005B00043E0660F771F881F991F4A95D1F708956A
:1005C0000895CF92DF92EF92FF92CF93DF936B016A
:1005D0007C01D0DFEB01C114D104E104F10479F016
:1005E000EFDFC8DF6C1B7D0B683E7340A0F381E03A
:1005F000C81AD108E108F108C851DC4FF2CFDF91E9
:10060000CF91FF90EF90DF90CF9008958AB58260F0
:100610008ABD8AB581608ABD83B7887F826083BFC7
:10062000789489B7826089BF40DF86B18877836814
:1006300086B9379A089580939A00089590919A0008
:100640009295990F990F907C8F70892B87B987B1FC
:1006500090919A0092FB222720F930E094E0220F3B
:10066000331F9A95E1F7282B27B9369A3699FECF92
:1006700084B125B190E0922B0895813031F48AB590
:100680008F778ABD8AB58F7B07C0823039F48AB5EF
:100690008F7D8ABD8AB58F7E8ABD0895833039F4F7
:1006A00080B78F7D80BF80B78F7E80BF08958430F4
:1006B00031F48CB58F7D8CBD8CB58F7E8CBD08954B
:1006C000CF93DF9387FF11C08F7741F0813041F0E6
:1006D000823041F0833041F08FEF07C085E005C0E4
:1006E00082E003C084E001C083E090E0FC01EC5DA7
:1006F000FF4F2491FC01E65DFF4F8491882361F157
:1007000090E0880F991FFC01E45CFF4FC591D491E4
:10071000FC01EA5CFF4FA591B491611109C09FB73C
:10072000F8948881209582238883EC912E230BC036
:10073000623061F49FB7F8948881322F309583231B
:100740008883EC912E2B2C939FBF06C08FB7F89413
:10075000E8812E2B28838FBFDF91CF9108951F93BF
:10076000CF93DF93162F87FF11C08F7741F0813031
:1007700041F0823041F0833041F08FEF07C085E0D7
:1007800005C082E003C084E001C083E0282F30E090
:10079000F901E25EFF4F8491F901EC5DFF4FD491C6
:1007A000F901E65DFF4FC491CC23D1F0811165DFE3
:1007B000EC2FF0E0EE0FFF1FEA5CFF4FA591B49124
:1007C000111108C09FB7F8948C91D095D823DC9371
:1007D0009FBF06C08FB7F894EC91DE2BDC938FBFE0
:1007E000DF91CF911F910895CF93DF9387FF11C0C1
:1007F0008F7741F0813041F0823041F0833041F019
:100800008FEF07C085E005C082E003C084E001C02F
:1008100083E0282F30E0F901E25EFF4F8491F90177
:10082000EC5DFF4FD491F901E65DFF4FC491CC23FD
:1008300089F0811122DFEC2FF0E0EE0FFF1FE05D69
:10084000FF4FA591B491EC91ED2381E090E021F46C
:1008500080E002C080E090E0DF91CF910895002415
:10086000552704C0080E591F880F991F009729F0BB
:1008700076956795B8F37105B9F7802D952F089592
:10088000E199FECF9FBB8EBBE09A99278DB3089567
:10089000262FE199FECF1CBA9FBB8EBB2DBB0FB696
:1008A000F894E29AE19A0FBE01960895F894FFCF6A
:00000001FF
