:1000000020C02FC02EC02DC02CC042C22AC029C083
:1000100028C027C026C025C024C023C022C001029A
:100020000000040001020408102002020202020281
:100030000000000036000000000038000000000052
:10004000370011241FBECFE5D2E0DEBFCDBF20E0D8
:10005000A0E6B0E001C01D92A239B207E1F703D2D9
:1000600011C4CECF60E082E00FD360E084E00CD317
:1000700060E080E009D381E0C2D281E8C3D261E0D0
:1000800081E002D387B5826087BD07B400FEFDCF53
:1000900087B5846087BD82EF80BF8CB580638CBDDF
:1000A0001EBC8FEF8DBD61E083E0EED284EF8093C4
:1000B000850010928600109287001092750004B699
:1000C00001FE1FC064EF71E080E090E05ED281E845
:1000D00099D28093810090938200682F80E090E015
:1000E000C3D364E670E080E090E04FD261E083E04B
:1000F0001AD36CEB72E080E090E047D260E083E0DE
:1001000012D364E670E080E090E03FD280E090E0BF
:10011000A3D38093750010926E0010928400109209
:10012000830010928200109281001092770010924A
:1001300078001092790010927A001092720010925A
:10014000710081E080938600809370009FEF909310
:100150006F00809374001092800010927F008EBD1B
:10016000E1D1609368007093690080936A00909376
:100170006B006093600070936100809362009093C5
:1001800063000895CF92DF92EF92FF920F931F9337
:10019000CF93C8D16093640070936500809366002C
:1001A00090936700009168001091690020916A00A7
:1001B00030916B006B017C01C01AD10AE20AF30A8C
:1001C0000091850010E020E030E0C016D106E20684
:1001D000F30688F0609368007093690080936A006A
:1001E00090936B0083E0E4D2882311F060E001C0BB
:1001F00061E083E098D2809186008E3F10F08DE719
:1002000001C08AEF809385008091770090917800FB
:10021000A0917900B0917A0080937B0090937C004C
:10022000A0937D00B0937E00809181009091820028
:100230009093800080937F0010928400109283003E
:1002400010928200109281001092760080917600C8
:1002500081111EC081E8D6D12091810030918200A9
:10026000820F931F909382008093810082E8CAD10D
:100270002091830030918400820F931F909384001B
:1002800080938300809176008F5F80937600DECF2D
:1002900020918300309184008091810090918200B0
:1002A0004091750050E04817590738F4841B950BAE
:1002B000909382008093810004C01092820010927B
:1002C00081000091810010918200C091860001158B
:1002D000110509F482C080917000811102C0C093A1
:1002E0007000C801A0E0B0E040E050E0BC01CD01EA
:1002F0009AD26093770070937800809379009093FE
:100300007A00C0907B00D0907C00E0907D00F0905F
:100310007E006C157D058E059F05F1F4109273002B
:1003200080917F00909180008017910718F41092BF
:1003300074000CC00817190710F481E005C081E0B3
:1003400090917400911180E080937400109271007C
:1003500084EF809385007CC020917300211103C03D
:1003600021E0209373006C157D058E059F0590F5A7
:10037000C093720081E090917400911180E08093AD
:100380007400809171008823E1F11092730090E075
:100390008C0F911D0196969587950396292F3327EB
:1003A000232B11F08FEF90E090936D0080936C0001
:1003B00080916C00809386001092710080E08093A1
:1003C0006D008FEF80936F0081E080936C008093CD
:1003D00070003EC0C093710014C01092770010925C
:1003E00078001092790010927A0081E08093730077
:1003F0008093740010927100809370008FEF80934F
:100400006F009091740080917300992369F090912E
:100410006F004C2F50E0292F30E0281B3109421784
:100420005307A4F48C0F0FC0909170004C2F50E034
:10043000491B510922E030E0281B310924173507F8
:100440002CF48C0F82508093860002C0909386001B
:10045000809186008EBDCF911F910F91FF90EF90FC
:10046000DF90CF90089581B781BFB4D0FBDD8ADEE5
:10047000FECF80B7807F80BF80B7806880BF8CB59B
:1004800080648CBD8FEF8DBD80B7846080BF089580
:100490001F920F920FB60F9211242F933F938F93B9
:1004A0009F93AF93BF938091890090918A00A09110
:1004B0008B00B0918C003091880026E0230F2D37FF
:1004C00030F029E8230F0396A11DB11D03C0029649
:1004D000A11DB11D209388008093890090938A000C
:1004E000A0938B00B0938C0080918D0090918E0032
:1004F000A0918F00B09190000196A11DB11D809335
:100500008D0090938E00A0938F00B0939000BF91C8
:10051000AF919F918F913F912F910F900FBE0F90B0
:100520001F9018952FB7F8946091890070918A00F8
:1005300080918B0090918C002FBF08953FB7F89465
:1005400080918D0090918E00A0918F00B0919000CD
:1005500022B708B601FE05C02F3F19F00196A11D74
:10056000B11D3FBFBA2FA92F982F8827820F911D49
:10057000A11DB11DBC01CD0143E0660F771F881F8F
:10058000991F4A95D1F708950895CF92DF92EF927F
:10059000FF92CF93DF936B017C01D0DFEB01C1149D
:1005A000D104E104F10479F0EFDFC8DF6C1B7D0BAF
:1005B000683E7340A0F381E0C81AD108E108F10851
:1005C000C851DC4FF2CFDF91CF91FF90EF90DF90D9
:1005D000CF9008958AB582608ABD8AB581608ABD50
:1005E00083B7887F826083BF789489B7826089BF30
:1005F00040DF86B18877836886B9379A08958093FB
:1006000091000895909191009295990F990F907C87
:100610008F70892B87B987B19091910092FB222727
:1006200020F930E094E0220F331F9A95E1F7282B50
:1006300027B9369A3699FECF84B125B190E0922B36
:100640000895813031F48AB58F778ABD8AB58F7B62
:1006500007C0823039F48AB58F7D8ABD8AB58F7E16
:100660008ABD0895833039F480B78F7D80BF80B70D
:100670008F7E80BF0895843031F48CB58F7D8CBD22
:100680008CB58F7E8CBD0895CF93DF9387FF11C00B
:100690008F7741F0813041F0823041F0833041F07A
:1006A0008FEF07C085E005C082E003C084E001C091
:1006B00083E090E0FC01EC5DFF4F2491FC01E65DDE
:1006C000FF4F8491882361F190E0880F991FFC010E
:1006D000E45CFF4FC591D491FC01EA5CFF4FA5910A
:1006E000B491611109C09FB7F89488812095822345
:1006F0008883EC912E230BC0623061F49FB7F8948D
:100700008881322F309583238883EC912E2B2C9374
:100710009FBF06C08FB7F894E8812E2B28838FBF28
:10072000DF91CF9108951F93CF93DF93162F87FF0B
:1007300011C08F7741F0813041F0823041F0833039
:1007400041F08FEF07C085E005C082E003C084E080
:1007500001C083E0282F30E0F901E25EFF4F849171
:10076000F901EC5DFF4FD491F901E65DFF4FC491B3
:10077000CC23D1F0811165DFEC2FF0E0EE0FFF1FED
:10078000EA5CFF4FA591B491111108C09FB7F8948E
:100790008C91D095D823DC939FBF06C08FB7F89477
:1007A000EC91DE2BDC938FBFDF91CF911F910895E9
:1007B000CF93DF9387FF11C08F7741F0813041F0F5
:1007C000823041F0833041F08FEF07C085E005C0F3
:1007D00082E003C084E001C083E0282F30E0F9010B
:1007E000E25EFF4F8491F901EC5DFF4FD491F90176
:1007F000E65DFF4FC491CC2389F0811122DFEC2FFD
:10080000F0E0EE0FFF1FE05DFF4FA591B491EC917A
:10081000ED2381E090E021F480E002C080E090E0F0
:10082000DF91CF910895EE27FF27AA27BB2708C0A5
:10083000A20FB31FE41FF51F220F331F441F551FC4
:10084000969587957795679598F37040A9F70097E7
:1008500099F7BD01CF010895E199FECF9FBB8EBBF3
:10086000E09A99278DB30895262FE199FECF1CBAFF
:100870009FBB8EBB2DBB0FB6F894E29AE19A0FBED8
:0808800001960895F894FFCFE2
:00000001FF
