:1000000020C02FC02EC02DC02CC05EC22AC029C067
:1000100028C027C026C025C024C023C022C001029A
:100020000000040001020408102002020202020281
:100030000000000036000000000038000000000052
:10004000370011241FBECFE5D2E0DEBFCDBF20E0D8
:10005000A0E6B0E001C01D92A139B207E1F71FD2BE
:1000600025C4CECF60E082E02BD360E084E028D3CB
:1000700060E080E025D384E0DED281E8DFD261E079
:1000800081E01ED387B5826087BD07B400FEFDCF37
:1000900087B5846087BD87EF80BF8CB580638CBDDA
:1000A0001EBC8FEF8DBD61E083E00AD384EF8093A7
:1000B000840010928500109286001092740004B69D
:1000C00001FE1FC064EF71E080E090E07AD281E829
:1000D000B5D28093800090938100682F80E090E0FB
:1000E000D7D364E670E080E090E06BD261E083E01B
:1000F00036D36CEB72E080E090E063D260E083E0A6
:100100002ED364E670E080E090E05BD280E090E087
:10011000B7D3803418F48093740002C01092740036
:100120001092830010928200109281001092800041
:100130001092760010927700109278001092790059
:10014000109271001092700081E08EBD80936F005C
:1001500097EF90936E008093730010927F0010923F
:100160007E00FCD1609368007093690080936A0000
:1001700090936B00609360007093610080936200C5
:10018000909363000895CF92DF92EF92FF920F93C6
:100190001F93E4D1609364007093650080936600C0
:1001A00090936700009168001091690020916A00A7
:1001B00030916B006B017C01C01AD10AE20AF30A8C
:1001C0000091840010E020E030E0C016D106E20685
:1001D000F30688F0609368007093690080936A006A
:1001E00090936B0083E000D3882311F060E001C09E
:1001F00061E083E0B4D28EB5873F10F08FE701C095
:100200008AEF809384008091760090917700A0918E
:100210007800B091790080937A0090937B00A0934E
:100220007C00B0937D00809180009091810090933C
:100230007F0080937E0010928300109282001092C3
:1002400081001092800010927500809175008111DC
:100250001EC081E8F3D12091800030918100820F8F
:10026000931F909381008093800082E8E7D12091D2
:10027000820030918300820F931F909383008093BC
:100280008200809175008F5F80937500DECF209192
:100290008000309181008091740090E08217930774
:1002A00008F0B7C0809182009091830040916F0068
:1002B000413019F44EB540936F00B901D0D2A0E09F
:1002C000B0E08093760090937700A0937800B0938D
:1002D000790040917A0050917B0060917C00709190
:1002E0007D0084179507A607B707D9F4109272000E
:1002F00080917E0090917F008217930718F41092EE
:1003000073000CC02817390710F481E005C081E0A4
:1003100090917300911180E08093730010927000AF
:1003200070C020917200223018F42F5F2093720069
:1003300084179507A607B70708F067C02EB5209366
:10034000710081E090917300911180E080937300BF
:1003500080917000882309F474C01092720090E0BC
:10036000820F911D0196969587950396292F332725
:10037000232B19F4883F910510F087EF90E09093BC
:100380006D0080936C0080916C008EBD10927000A7
:100390002EB587EF90E0821B910990936D008093BA
:1003A0006C002EB5820F911D292F3327232B19F4B2
:1003B000883F910510F087EF90E090936D00809357
:1003C0006C0080916C0080936E002EB530E021505F
:1003D000310930936D0020936C008EB590E0821B44
:1003E000930B292F3327232B11F4009711F481E06D
:1003F00090E090936D0080936C0080916C008093EE
:100400006F0084EF8093840043C08EB580937000AA
:1004100018C0109276001092770010927800109217
:10042000790082E08093720081E0809373001092E3
:10043000700080936F0087EF80936E0080E580935B
:1004400084009091730080917200992371F04EB5F1
:1004500090916E0050E0292F30E0281B310942179F
:100460005307ACF49EB5890F10C02EB590916F0064
:1004700030E0291B310943E050E0481B5109421785
:1004800053072CF49EB5890F83508EBD01C09EBDCD
:100490001F910F91FF90EF90DF90CF90089581B75B
:1004A00081BFB4D0DFDD6FDEFECF80B7807F80BF3D
:1004B00080B7806880BF8CB580648CBD8FEF8DBDA8
:1004C00080B7846080BF08951F920F920FB60F927D
:1004D00011242F933F938F939F93AF93BF9380915A
:1004E000880090918900A0918A00B0918B00309192
:1004F000870026E0230F2D3730F029E8230F0396DD
:10050000A11DB11D03C00296A11DB11D209387003E
:100510008093880090938900A0938A00B0938B0009
:1005200080918C0090918D00A0918E00B0918F00F1
:100530000196A11DB11D80938C0090938D00A09316
:100540008E00B0938F00BF91AF919F918F913F919B
:100550002F910F900FBE0F901F9018952FB7F89402
:10056000609188007091890080918A0090918B0041
:100570002FBF08953FB7F89480918C0090918D0023
:10058000A0918E00B0918F0022B708B601FE05C081
:100590002F3F19F00196A11DB11D3FBFBA2FA92F02
:1005A000982F8827820F911DA11DB11DBC01CD017F
:1005B00043E0660F771F881F991F4A95D1F708956A
:1005C0000895CF92DF92EF92FF92CF93DF936B016A
:1005D0007C01D0DFEB01C114D104E104F10479F016
:1005E000EFDFC8DF6C1B7D0B683E7340A0F381E03A
:1005F000C81AD108E108F108C851DC4FF2CFDF91E9
:10060000CF91FF90EF90DF90CF9008958AB58260F0
:100610008ABD8AB581608ABD83B7887F826083BFC7
:10062000789489B7826089BF40DF86B18877836814
:1006300086B9379A0895809390000895909190001C
:100640009295990F990F907C8F70892B87B987B1FC
:100650009091900092FB222720F930E094E0220F45
:10066000331F9A95E1F7282B27B9369A3699FECF92
:1006700084B125B190E0922B0895813031F48AB590
:100680008F778ABD8AB58F7B07C0823039F48AB5EF
:100690008F7D8ABD8AB58F7E8ABD0895833039F4F7
:1006A00080B78F7D80BF80B78F7E80BF08958430F4
:1006B00031F48CB58F7D8CBD8CB58F7E8CBD08954B
:1006C000CF93DF9387FF11C08F7741F0813041F0E6
:1006D000823041F0833041F08FEF07C085E005C0E4
:1006E00082E003C084E001C083E090E0FC01EC5DA7
:1006F000FF4F2491FC01E65DFF4F8491882361F157
:1007000090E0880F991FFC01E45CFF4FC591D491E4
:10071000FC01EA5CFF4FA591B491611109C09FB73C
:10072000F8948881209582238883EC912E230BC036
:10073000623061F49FB7F8948881322F309583231B
:100740008883EC912E2B2C939FBF06C08FB7F89413
:10075000E8812E2B28838FBFDF91CF9108951F93BF
:10076000CF93DF93162F87FF11C08F7741F0813031
:1007700041F0823041F0833041F08FEF07C085E0D7
:1007800005C082E003C084E001C083E0282F30E090
:10079000F901E25EFF4F8491F901EC5DFF4FD491C6
:1007A000F901E65DFF4FC491CC23D1F0811165DFE3
:1007B000EC2FF0E0EE0FFF1FEA5CFF4FA591B49124
:1007C000111108C09FB7F8948C91D095D823DC9371
:1007D0009FBF06C08FB7F894EC91DE2BDC938FBFE0
:1007E000DF91CF911F910895CF93DF9387FF11C0C1
:1007F0008F7741F0813041F0823041F0833041F019
:100800008FEF07C085E005C082E003C084E001C02F
:1008100083E0282F30E0F901E25EFF4F8491F90177
:10082000EC5DFF4FD491F901E65DFF4FC491CC23FD
:1008300089F0811122DFEC2FF0E0EE0FFF1FE05D69
:10084000FF4FA591B491EC91ED2381E090E021F46C
:1008500080E002C080E090E0DF91CF910895002415
:10086000552704C0080E591F880F991F009729F0BB
:1008700076956795B8F37105B9F7802D952F089592
:10088000E199FECF9FBB8EBBE09A99278DB3089567
:10089000262FE199FECF1CBA9FBB8EBB2DBB0FB696
:1008A000F894E29AE19A0FBE01960895F894FFCF6A
:00000001FF
