:1000000021C045C044C043C042C0FBC240C03FC045
:100010003EC03DC03CC03BC0B8C239C038C0010280
:100020000000040001020408102002020202020281
:100030000000000036000000000038000000000052
:100040003700E40211241FBECFE5D2E0DEBFCDBFF2
:1000500010E0A0E6B0E0EAE4FCE002C005900D92FA
:10006000A837B107D9F720E0A8E7B0E001C01D929A
:10007000AA3BB207E1F710E0C2E2D0E003C021974B
:10008000FE019BD4C132D107D1F7A6D2DCC5B8CFCF
:100090006FE670E08091780090917900B5D521E00D
:1000A000892B09F020E0822F089560E082E0A5D33B
:1000B00060E084E0A2D360E080E09FD384E058D386
:1000C00081E859D3E5DF80939000E0917800F091CA
:1000D0007900108284B7877F84BF88E181BD89E67B
:1000E00081BD61E081E089D387B5826087BD07B4B7
:1000F00000FEFDCF87B5846087BD1EBC8FEF8DBD30
:1001000086EF80BF61E083E078D384EF91E0909345
:10011000AB008093AA0010929200A89504B601FE4D
:1001200005C080919000882309F45FC064E670E008
:1001300080E090E0E3D280E090E06FD5803418F466
:100140008093920002C01092920064EF71E080E010
:1001500090E0D4D21092A5001092A4001092A900B1
:100160001092A800109294001092950010929600A0
:100170001092970010929F0010929E0081E0809351
:100180008F0044E150E060E070E040937B005093CA
:100190007C0060937D0070937E0080937A001092C3
:1001A0009D0010929C0077D260938B0070938C001E
:1001B00080938D0090938E0060937F0070938000F9
:1001C00080938100909382006093830070938400F9
:1001D0008093850090938600109291008DE78EBDEC
:1001E0006CE271E080E090E089C264EF71E080E051
:1001F00090E084D281E8BFD28093A8009093A900B8
:10020000682F80E090E011D564E670E080E090E037
:1002100075D261E083E040D36CEB72E080E090E067
:100220006DD260E083E038D3A89580CFCF92DF9283
:10023000EF92FF920F931F932ED2609387007093DB
:1002400088008093890090938A0000918B00109120
:100250008C0020918D0030918E006B017C01C01AC2
:10026000D10AE20AF30A0091AA001091AB00012E14
:10027000000C220B330BC016D106E206F3068CF0FD
:1002800060938B0070938C0080938D0090938E0010
:1002900083E047D3882311F060E001C061E083E090
:1002A000FBD28091A2009091A3009093A100809333
:1002B000A0008091A4009091A5009093A30080934A
:1002C000A2008091A8009091A9009093A70080932C
:1002D000A60008B602FEFDCF82E84DD29093A5009D
:1002E0008093A40081E847D29093A9008093A8004E
:1002F0001092930080919300823048F582E83BD2BF
:100300008C0181E838D22091A4003091A500200F03
:10031000311F37FF02C02F5F3F4F35952795309330
:10032000A5002093A4002091A8003091A900820F7D
:10033000931F97FD0196959587959093A9008093BB
:10034000A800809193008F5F80939300D3CF80911A
:10035000A4009091A500880F991F880F991F909372
:10036000A5008093A40097D16093870070938800C4
:100370008093890090938A000091830010918400FB
:1003800020918500309186006B017C01C01AD10A52
:10039000E20AF30A00917B0010917C0020917D001D
:1003A00030917E00C016D106E206F3060CF4E6C0DA
:1003B000A895609383007093840080938500909348
:1003C00086008091940090919500A0919600B09144
:1003D00097008093980090939900A0939A00B0930F
:1003E0009B006091A4007091A5008091A80090915D
:1003F000A900D2D2092E000CAA0BBB0B809394004B
:1004000090939500A0939600B093970044D1609389
:100410008700709388008093890090938A002EB59E
:10042000409192002E3720F100917F0010918000C2
:1004300020918100309182006B017C01C01AD10AA9
:10044000E20AF30A55E9C51651E1D506E104F104C3
:10045000BCF060937F007093800080938100909344
:100460008200242F30E03093A9002093A80008C018
:1004700060937F007093800080938100909382004E
:10048000842F90E02091A8003091A9008217930753
:10049000CCF581E080937A004091940050919500D2
:1004A00060919600709197008091980090919900CA
:1004B000A0919A00B0919B00481759076A077B07E3
:1004C00039F484EF91E09093AB008093AA0056C07A
:1004D00084179507A607B7073CF480E991E090934D
:1004E000AB008093AA0030C08CE291E09093AB0007
:1004F0008093AA0081E090919100911180E0809317
:10050000910022C08CE291E09093AB008093AA000E
:100510008DE78EBD1092910010929400109295007C
:1005200010929600109297001092A9001092A800C5
:1005300010929F0010929E0081E080937A001092AA
:100540009D0010929C001AC080919100882359F060
:100550008EB58A3F18F48EB58F5F0AC08AEF8EBDC4
:10056000109291000BC08EB5823020F08EB5815074
:100570008EBD04C081E08EBD809391001F910F91CC
:10058000FF90EF90DF90CF9008951F920F920FB6DB
:100590000F9211248F93AF93BF93EF93FF93A0918A
:1005A0007800B091790089E0E6E6F0E001900D92E4
:1005B0008A95E1F7FF91EF91BF91AF918F910F90E5
:1005C0000FBE0F901F90189589E090E0FCD190939A
:1005D000790080937800089581B781BFB4D065DD3C
:1005E00025DEFECF80B7807F80BF80B7806880BF68
:1005F0008CB580648CBD8FEF8DBD80B7846080BF6B
:1006000008951F920F920FB60F9211242F933F93CC
:100610008F939F93AF93BF938091AD009091AE0065
:10062000A091AF00B091B0003091AC0026E0230F54
:100630002D3730F029E8230F0396A11DB11D03C00B
:100640000296A11DB11D2093AC008093AD00909344
:10065000AE00A093AF00B093B0008091B100909134
:10066000B200A091B300B091B4000196A11DB11DDC
:100670008093B1009093B200A093B300B093B40004
:10068000BF91AF919F918F913F912F910F900FBE8E
:100690000F901F9018952FB7F8946091AD0070914E
:1006A000AE008091AF009091B0002FBF08953FB78A
:1006B000F8948091B1009091B200A091B300B091F4
:1006C000B40022B708B601FE05C02F3F19F001960D
:1006D000A11DB11D3FBFBA2FA92F982F8827820FC8
:1006E000911DA11DB11DBC01CD0143E0660F771F17
:1006F000881F991F4A95D1F708950895CF92DF92E8
:10070000EF92FF92CF93DF936B017C01D0DFEB017F
:10071000C114D104E104F10479F0EFDFC8DF6C1BF0
:100720007D0B683E7340A0F381E0C81AD108E10850
:10073000F108C851DC4FF2CFDF91CF91FF90EF90DD
:10074000DF90CF9008958AB582608ABD8AB58160B6
:100750008ABD83B7887F826083BF789489B78260BF
:1007600089BF40DF86B18877836886B9379A089554
:100770008093B50008959091B5009295990F990FC7
:10078000907C8F70892B87B987B19091B50092FBCF
:10079000222720F930E094E0220F331F9A95E1F7E9
:1007A000282B27B9369A3699FECF84B125B190E02F
:1007B000922B0895813031F48AB58F778ABD8AB53E
:1007C0008F7B07C0823039F48AB58F7D8ABD8AB5A8
:1007D0008F7E8ABD0895833039F480B78F7D80BFC6
:1007E00080B78F7E80BF0895843031F48CB58F7DC3
:1007F0008CBD8CB58F7E8CBD0895CF93DF9387FF22
:1008000011C08F7741F0813041F0823041F0833068
:1008100041F08FEF07C085E005C082E003C084E0AF
:1008200001C083E090E0FC01EC5DFF4F2491FC01EE
:10083000E65DFF4F8491882361F190E0880F991F56
:10084000FC01E45CFF4FC591D491FC01EA5CFF4FD1
:10085000A591B491611109C09FB7F8948881209542
:1008600082238883EC912E230BC0623061F49FB702
:10087000F8948881322F309583238883EC912E2B36
:100880002C939FBF06C08FB7F894E8812E2B288346
:100890008FBFDF91CF9108951F93CF93DF93162FD2
:1008A00087FF11C08F7741F0813041F0823041F0F5
:1008B000833041F08FEF07C085E005C082E003C0C0
:1008C00084E001C083E0282F30E0F901E25EFF4FB1
:1008D0008491F901EC5DFF4FD491F901E65DFF4F82
:1008E000C491CC23D1F0811165DFEC2FF0E0EE0F45
:1008F000FF1FEA5CFF4FA591B491111108C09FB78B
:10090000F8948C91D095D823DC939FBF06C08FB705
:10091000F894EC91DE2BDC938FBFDF91CF911F9188
:100920000895CF93DF9387FF11C08F7741F0813017
:1009300041F0823041F0833041F08FEF07C085E015
:1009400005C082E003C084E001C083E0282F30E0CE
:10095000F901E25EFF4F8491F901EC5DFF4FD49104
:10096000F901E65DFF4FC491CC2389F0811122DFAC
:10097000EC2FF0E0EE0FFF1FE05DFF4FA591B4916B
:10098000EC91ED2381E090E021F480E002C080E072
:1009900090E0DF91CF9108950024552704C0080E00
:1009A000591F880F991F009729F076956795B8F31E
:1009B0007105B9F7802D952F0895EE0FFF1F059053
:1009C000F491E02D09940F931F93CF93DF9382301E
:1009D000910510F482E090E0E091B800F091B90048
:1009E00020E030E0A0E0B0E0309719F14081518183
:1009F0000281138148175907C8F08417950769F4D5
:100A0000109731F012960C93129713961C9327C0EF
:100A10000093B8001093B90022C02115310519F0D8
:100A20004217530718F49A01BD01EF01DF01F801E5
:100A3000DBCF21153105F9F0281B390B24303105A6
:100A400080F48A819B816115710521F0FB019383FC
:100A5000828304C09093B9008093B800FE0132965F
:100A600044C0FE01E20FF31F81939193225031099C
:100A7000398328833AC02091B6003091B700232BE8
:100A800041F420916200309163003093B7002093CD
:100A9000B60020916000309161002115310541F4CC
:100AA0002DB73EB74091640050916500241B350B73
:100AB000E091B600F091B700E217F307A0F42E1B07
:100AC0003F0B2817390778F0AC014E5F5F4F2417B2
:100AD000350748F04E0F5F1F5093B7004093B600A4
:100AE0008193919302C0E0E0F0E0CF01DF91CF91DC
:100AF0001F910F910895CF93DF93009709F481C060
:100B0000FC01329713821282A091B800B091B90013
:100B1000109781F420813181820F931F2091B600BC
:100B20003091B7002817390751F5F093B700E093DB
:100B3000B60067C0ED0120E030E0CE17DF0740F4DB
:100B40004A815B819E0141155105F1F0EA01F5CF23
:100B5000D383C28340815181840F951FC817D90761
:100B600059F488819981840F951F0296918380831F
:100B70008A819B81938382832115310529F4F09327
:100B8000B900E093B8003DC0E901FB83EA834991D5
:100B90005991C40FD51FEC17FD0761F48081918135
:100BA000840F951F0296E90199838883828193813E
:100BB0009B838A83E0E0F0E012968D919C911397DD
:100BC000009719F0FD01DC01F7CF8D919C911197F1
:100BD0009D012E5F3F4F820F931F2091B6003091F1
:100BE000B7002817390769F4309729F41092B90033
:100BF0001092B80002C013821282B093B700A09383
:100C0000B600DF91CF910895FB01DC018D91019039
:100C100080190110D9F3990B0895E199FECF9FBB7C
:100C20008EBBE09A99278DB30895262FE199FECFC8
:100C30001CBA9FBB8EBB2DBB0FB6F894E29AE19A0B
:0A0C40000FBE01960895F894FFCF4F
:100C4A000000BA0080007764747265736574007777
:080C5A00647472657365740097
:00000001FF
